{
  "_format": "hh-sol-artifact-1",
  "contractName": "SourcerAO",
  "sourceName": "contracts/sourcerao.sol",
  "abi": [
    {
      "inputs": [],
      "stateMutability": "nonpayable",
      "type": "constructor"
    },
    {
      "anonymous": false,
      "inputs": [
        {
          "indexed": true,
          "internalType": "bytes32",
          "name": "role",
          "type": "bytes32"
        },
        {
          "indexed": true,
          "internalType": "bytes32",
          "name": "previousAdminRole",
          "type": "bytes32"
        },
        {
          "indexed": true,
          "internalType": "bytes32",
          "name": "newAdminRole",
          "type": "bytes32"
        }
      ],
      "name": "RoleAdminChanged",
      "type": "event"
    },
    {
      "anonymous": false,
      "inputs": [
        {
          "indexed": true,
          "internalType": "bytes32",
          "name": "role",
          "type": "bytes32"
        },
        {
          "indexed": true,
          "internalType": "address",
          "name": "account",
          "type": "address"
        },
        {
          "indexed": true,
          "internalType": "address",
          "name": "sender",
          "type": "address"
        }
      ],
      "name": "RoleGranted",
      "type": "event"
    },
    {
      "anonymous": false,
      "inputs": [
        {
          "indexed": true,
          "internalType": "bytes32",
          "name": "role",
          "type": "bytes32"
        },
        {
          "indexed": true,
          "internalType": "address",
          "name": "account",
          "type": "address"
        },
        {
          "indexed": true,
          "internalType": "address",
          "name": "sender",
          "type": "address"
        }
      ],
      "name": "RoleRevoked",
      "type": "event"
    },
    {
      "inputs": [],
      "name": "ADMIN_MANAGER_ROLE",
      "outputs": [
        {
          "internalType": "bytes32",
          "name": "",
          "type": "bytes32"
        }
      ],
      "stateMutability": "view",
      "type": "function"
    },
    {
      "inputs": [],
      "name": "ADMIN_ROLE",
      "outputs": [
        {
          "internalType": "bytes32",
          "name": "",
          "type": "bytes32"
        }
      ],
      "stateMutability": "view",
      "type": "function"
    },
    {
      "inputs": [],
      "name": "ARBITRATION_BAN",
      "outputs": [
        {
          "internalType": "bytes32",
          "name": "",
          "type": "bytes32"
        }
      ],
      "stateMutability": "view",
      "type": "function"
    },
    {
      "inputs": [],
      "name": "DEFAULT_ADMIN_ROLE",
      "outputs": [
        {
          "internalType": "bytes32",
          "name": "",
          "type": "bytes32"
        }
      ],
      "stateMutability": "view",
      "type": "function"
    },
    {
      "inputs": [
        {
          "internalType": "uint256",
          "name": "id",
          "type": "uint256"
        },
        {
          "internalType": "string",
          "name": "_cv_uri",
          "type": "string"
        }
      ],
      "name": "applyToProject",
      "outputs": [],
      "stateMutability": "nonpayable",
      "type": "function"
    },
    {
      "inputs": [
        {
          "internalType": "address",
          "name": "addr",
          "type": "address"
        }
      ],
      "name": "banArbitrator",
      "outputs": [],
      "stateMutability": "nonpayable",
      "type": "function"
    },
    {
      "inputs": [
        {
          "internalType": "string",
          "name": "_title",
          "type": "string"
        },
        {
          "internalType": "string",
          "name": "_uri",
          "type": "string"
        },
        {
          "internalType": "bool",
          "name": "_open_to_fundings",
          "type": "bool"
        }
      ],
      "name": "createProject",
      "outputs": [],
      "stateMutability": "nonpayable",
      "type": "function"
    },
    {
      "inputs": [
        {
          "internalType": "uint256",
          "name": "id",
          "type": "uint256"
        }
      ],
      "name": "endVotePhase",
      "outputs": [],
      "stateMutability": "nonpayable",
      "type": "function"
    },
    {
      "inputs": [
        {
          "internalType": "uint256",
          "name": "id",
          "type": "uint256"
        }
      ],
      "name": "forceVotePhase",
      "outputs": [],
      "stateMutability": "nonpayable",
      "type": "function"
    },
    {
      "inputs": [
        {
          "internalType": "uint256",
          "name": "id",
          "type": "uint256"
        }
      ],
      "name": "fundProject",
      "outputs": [],
      "stateMutability": "payable",
      "type": "function"
    },
    {
      "inputs": [
        {
          "internalType": "address",
          "name": "addr",
          "type": "address"
        }
      ],
      "name": "getDevelopper",
      "outputs": [
        {
          "components": [
            {
              "internalType": "uint256",
              "name": "reputation",
              "type": "uint256"
            },
            {
              "internalType": "string",
              "name": "cv_uri",
              "type": "string"
            }
          ],
          "internalType": "struct Developpers_attributes",
          "name": "",
          "type": "tuple"
        }
      ],
      "stateMutability": "view",
      "type": "function"
    },
    {
      "inputs": [
        {
          "internalType": "uint256",
          "name": "id",
          "type": "uint256"
        },
        {
          "internalType": "address",
          "name": "addr",
          "type": "address"
        }
      ],
      "name": "getFunds",
      "outputs": [
        {
          "internalType": "uint256",
          "name": "",
          "type": "uint256"
        },
        {
          "internalType": "uint256",
          "name": "",
          "type": "uint256"
        }
      ],
      "stateMutability": "view",
      "type": "function"
    },
    {
      "inputs": [
        {
          "internalType": "uint256",
          "name": "id",
          "type": "uint256"
        }
      ],
      "name": "getProject",
      "outputs": [
        {
          "components": [
            {
              "internalType": "uint256",
              "name": "id",
              "type": "uint256"
            },
            {
              "internalType": "string",
              "name": "title",
              "type": "string"
            },
            {
              "internalType": "string",
              "name": "uri",
              "type": "string"
            },
            {
              "internalType": "address",
              "name": "creator",
              "type": "address"
            },
            {
              "internalType": "uint256",
              "name": "creation_date",
              "type": "uint256"
            },
            {
              "internalType": "bool",
              "name": "open_to_fundings",
              "type": "bool"
            },
            {
              "internalType": "enum ProjectState",
              "name": "state",
              "type": "uint8"
            },
            {
              "internalType": "uint256",
              "name": "total_bounty",
              "type": "uint256"
            },
            {
              "internalType": "uint256",
              "name": "total_bail",
              "type": "uint256"
            },
            {
              "internalType": "uint256",
              "name": "application_deadline",
              "type": "uint256"
            },
            {
              "internalType": "uint256",
              "name": "vote_deadline",
              "type": "uint256"
            },
            {
              "internalType": "address",
              "name": "chosen_dev",
              "type": "address"
            },
            {
              "internalType": "address",
              "name": "arbitrator",
              "type": "address"
            },
            {
              "internalType": "address[]",
              "name": "funders_addr",
              "type": "address[]"
            },
            {
              "internalType": "address[]",
              "name": "developpers_addr",
              "type": "address[]"
            }
          ],
          "internalType": "struct Project_view",
          "name": "",
          "type": "tuple"
        }
      ],
      "stateMutability": "view",
      "type": "function"
    },
    {
      "inputs": [],
      "name": "getProjectCount",
      "outputs": [
        {
          "internalType": "uint256",
          "name": "",
          "type": "uint256"
        }
      ],
      "stateMutability": "view",
      "type": "function"
    },
    {
      "inputs": [
        {
          "internalType": "bytes32",
          "name": "role",
          "type": "bytes32"
        }
      ],
      "name": "getRoleAdmin",
      "outputs": [
        {
          "internalType": "bytes32",
          "name": "",
          "type": "bytes32"
        }
      ],
      "stateMutability": "view",
      "type": "function"
    },
    {
      "inputs": [
        {
          "internalType": "uint256",
          "name": "id",
          "type": "uint256"
        },
        {
          "internalType": "address",
          "name": "addr",
          "type": "address"
        }
      ],
      "name": "getVote",
      "outputs": [
        {
          "internalType": "address",
          "name": "",
          "type": "address"
        }
      ],
      "stateMutability": "view",
      "type": "function"
    },
    {
      "inputs": [
        {
          "internalType": "uint256",
          "name": "id",
          "type": "uint256"
        }
      ],
      "name": "getWinner",
      "outputs": [
        {
          "internalType": "address",
          "name": "",
          "type": "address"
        }
      ],
      "stateMutability": "view",
      "type": "function"
    },
    {
      "inputs": [
        {
          "internalType": "address",
          "name": "_address",
          "type": "address"
        }
      ],
      "name": "grantAdminManagerRole",
      "outputs": [],
      "stateMutability": "nonpayable",
      "type": "function"
    },
    {
      "inputs": [
        {
          "internalType": "address",
          "name": "_address",
          "type": "address"
        }
      ],
      "name": "grantAdminRole",
      "outputs": [],
      "stateMutability": "nonpayable",
      "type": "function"
    },
    {
      "inputs": [
        {
          "internalType": "bytes32",
          "name": "role",
          "type": "bytes32"
        },
        {
          "internalType": "address",
          "name": "account",
          "type": "address"
        }
      ],
      "name": "grantRole",
      "outputs": [],
      "stateMutability": "nonpayable",
      "type": "function"
    },
    {
      "inputs": [
        {
          "internalType": "uint256",
          "name": "id",
          "type": "uint256"
        },
        {
          "internalType": "uint256",
          "name": "decision",
          "type": "uint256"
        }
      ],
      "name": "handleArbitrationPhase",
      "outputs": [],
      "stateMutability": "nonpayable",
      "type": "function"
    },
    {
      "inputs": [
        {
          "internalType": "uint256",
          "name": "id",
          "type": "uint256"
        }
      ],
      "name": "handleLitigationPhase",
      "outputs": [],
      "stateMutability": "nonpayable",
      "type": "function"
    },
    {
      "inputs": [
        {
          "internalType": "uint256",
          "name": "id",
          "type": "uint256"
        },
        {
          "internalType": "address",
          "name": "addr",
          "type": "address"
        }
      ],
      "name": "hasApplied",
      "outputs": [
        {
          "internalType": "bool",
          "name": "",
          "type": "bool"
        }
      ],
      "stateMutability": "view",
      "type": "function"
    },
    {
      "inputs": [
        {
          "internalType": "bytes32",
          "name": "role",
          "type": "bytes32"
        },
        {
          "internalType": "address",
          "name": "account",
          "type": "address"
        }
      ],
      "name": "hasRole",
      "outputs": [
        {
          "internalType": "bool",
          "name": "",
          "type": "bool"
        }
      ],
      "stateMutability": "view",
      "type": "function"
    },
    {
      "inputs": [
        {
          "internalType": "address",
          "name": "addr",
          "type": "address"
        }
      ],
      "name": "isAdmin",
      "outputs": [
        {
          "internalType": "bool",
          "name": "",
          "type": "bool"
        }
      ],
      "stateMutability": "view",
      "type": "function"
    },
    {
      "inputs": [
        {
          "internalType": "address",
          "name": "addr",
          "type": "address"
        }
      ],
      "name": "isAdminManager",
      "outputs": [
        {
          "internalType": "bool",
          "name": "",
          "type": "bool"
        }
      ],
      "stateMutability": "view",
      "type": "function"
    },
    {
      "inputs": [
        {
          "internalType": "uint256",
          "name": "id",
          "type": "uint256"
        }
      ],
      "name": "removeApplication",
      "outputs": [],
      "stateMutability": "nonpayable",
      "type": "function"
    },
    {
      "inputs": [
        {
          "internalType": "uint256",
          "name": "id",
          "type": "uint256"
        }
      ],
      "name": "renounceDevelopper",
      "outputs": [],
      "stateMutability": "nonpayable",
      "type": "function"
    },
    {
      "inputs": [
        {
          "internalType": "bytes32",
          "name": "role",
          "type": "bytes32"
        },
        {
          "internalType": "address",
          "name": "account",
          "type": "address"
        }
      ],
      "name": "renounceRole",
      "outputs": [],
      "stateMutability": "nonpayable",
      "type": "function"
    },
    {
      "inputs": [
        {
          "internalType": "address",
          "name": "_address",
          "type": "address"
        }
      ],
      "name": "revokeAdminManagerRole",
      "outputs": [],
      "stateMutability": "nonpayable",
      "type": "function"
    },
    {
      "inputs": [
        {
          "internalType": "address",
          "name": "_address",
          "type": "address"
        }
      ],
      "name": "revokeAdminRole",
      "outputs": [],
      "stateMutability": "nonpayable",
      "type": "function"
    },
    {
      "inputs": [
        {
          "internalType": "bytes32",
          "name": "role",
          "type": "bytes32"
        },
        {
          "internalType": "address",
          "name": "account",
          "type": "address"
        }
      ],
      "name": "revokeRole",
      "outputs": [],
      "stateMutability": "nonpayable",
      "type": "function"
    },
    {
      "inputs": [
        {
          "internalType": "uint256",
          "name": "_bail_percentage",
          "type": "uint256"
        },
        {
          "internalType": "uint256",
          "name": "_reputation_threshold_for_arbitration",
          "type": "uint256"
        },
        {
          "internalType": "uint256",
          "name": "_litigation_period",
          "type": "uint256"
        }
      ],
      "name": "setParameters",
      "outputs": [],
      "stateMutability": "nonpayable",
      "type": "function"
    },
    {
      "inputs": [
        {
          "internalType": "uint256",
          "name": "id",
          "type": "uint256"
        },
        {
          "internalType": "uint256",
          "name": "_application_deadline",
          "type": "uint256"
        },
        {
          "internalType": "uint256",
          "name": "_vote_deadline",
          "type": "uint256"
        }
      ],
      "name": "setProjectParameters",
      "outputs": [],
      "stateMutability": "nonpayable",
      "type": "function"
    },
    {
      "inputs": [
        {
          "internalType": "uint256",
          "name": "id",
          "type": "uint256"
        }
      ],
      "name": "startLitigationPhase_dev",
      "outputs": [],
      "stateMutability": "nonpayable",
      "type": "function"
    },
    {
      "inputs": [
        {
          "internalType": "uint256",
          "name": "id",
          "type": "uint256"
        }
      ],
      "name": "startLitigationPhase_funder",
      "outputs": [],
      "stateMutability": "nonpayable",
      "type": "function"
    },
    {
      "inputs": [
        {
          "internalType": "uint256",
          "name": "id",
          "type": "uint256"
        }
      ],
      "name": "startVotePhase",
      "outputs": [],
      "stateMutability": "nonpayable",
      "type": "function"
    },
    {
      "inputs": [
        {
          "internalType": "bytes4",
          "name": "interfaceId",
          "type": "bytes4"
        }
      ],
      "name": "supportsInterface",
      "outputs": [
        {
          "internalType": "bool",
          "name": "",
          "type": "bool"
        }
      ],
      "stateMutability": "view",
      "type": "function"
    },
    {
      "inputs": [
        {
          "internalType": "address",
          "name": "addr",
          "type": "address"
        }
      ],
      "name": "unbanArbitrator",
      "outputs": [],
      "stateMutability": "nonpayable",
      "type": "function"
    },
    {
      "inputs": [
        {
          "internalType": "string",
          "name": "_cv_uri",
          "type": "string"
        }
      ],
      "name": "updateCV",
      "outputs": [],
      "stateMutability": "nonpayable",
      "type": "function"
    },
    {
      "inputs": [
        {
          "internalType": "uint256",
          "name": "id",
          "type": "uint256"
        },
        {
          "internalType": "address",
          "name": "developper",
          "type": "address"
        }
      ],
      "name": "voteForDevelopper",
      "outputs": [],
      "stateMutability": "nonpayable",
      "type": "function"
    },
    {
      "inputs": [
        {
          "internalType": "uint256",
          "name": "id",
          "type": "uint256"
        }
      ],
      "name": "withdrawFunds",
      "outputs": [],
      "stateMutability": "nonpayable",
      "type": "function"
    }
  ],
  "bytecode": "0x60806040523480156200001157600080fd5b50620000447fa49807205ce4d355092ef5a8a18f56e8913cf4a201fbe287825b095693c2177533620000a360201b60201c565b620000767f10727a1f9dcafcdc62117a955136b7425444d71bf08083d4aa5892e20e27814d33620000a360201b60201c565b62000095600a670de0b6b3a764000062015180620000b960201b60201c565b60006006819055506200032d565b620000b582826200014760201b60201c565b5050565b620000eb7fa49807205ce4d355092ef5a8a18f56e8913cf4a201fbe287825b095693c21775336200023860201b60201c565b6200012d576040517f08c379a000000000000000000000000000000000000000000000000000000000815260040162000124906200030b565b60405180910390fd5b826001819055508160028190555080600381905550505050565b6200015982826200023860201b60201c565b6200023457600160008084815260200190815260200160002060000160008373ffffffffffffffffffffffffffffffffffffffff1673ffffffffffffffffffffffffffffffffffffffff16815260200190815260200160002060006101000a81548160ff021916908315150217905550620001d9620002a260201b60201c565b73ffffffffffffffffffffffffffffffffffffffff168173ffffffffffffffffffffffffffffffffffffffff16837f2f8788117e7eff1d82e926ec794901d17c78024a50270940304540a733656f0d60405160405180910390a45b5050565b600080600084815260200190815260200160002060000160008373ffffffffffffffffffffffffffffffffffffffff1673ffffffffffffffffffffffffffffffffffffffff16815260200190815260200160002060009054906101000a900460ff16905092915050565b600033905090565b600082825260208201905092915050565b7f43616c6c6572206973206e6f7420616e2061646d696e00000000000000000000600082015250565b6000620002f3601683620002aa565b91506200030082620002bb565b602082019050919050565b600060208201905081810360008301526200032681620002e4565b9050919050565b61688b806200033d6000396000f3fe6080604052600436106102515760003560e01c80637a77bffd11610139578063b27a66e8116100b6578063d547741f1161007a578063d547741f146108b8578063e8776ffe146108e1578063ef6300c71461090a578063f0f3f2c814610947578063f74ce1d214610984578063fcd961a2146109ad57610251565b8063b27a66e8146107d5578063bc3f931f146107fe578063c634b78e1461083b578063c668a47d14610864578063ca14cfb81461088d57610251565b80639693f940116100fd5780639693f940146106f25780639a19c7b01461071b578063a217fddf14610744578063a39bf5441461076f578063a7020b1a146107ac57610251565b80637a77bffd146105fa57806388b62c201461062357806389e192251461066157806391d148541461068a57806395f381cb146106c757610251565b806336568abe116101d257806350f3aed31161019657806350f3aed31461050f578063677c0e66146105385780636c3ec2e0146105615780636c563abe1461058a57806375b238fc146105a6578063781419cf146105d157610251565b806336568abe1461042c5780633bcff3b0146104555780634129b2c914610480578063488deb14146104bd5780634f6dfc86146104e657610251565b806324d7806c1161021957806324d7806c1461034b57806327244a93146103885780632f2ff15d146103b157806334c5d2ce146103da578063350a333f1461040357610251565b806301ffc9a714610256578063155dd5ee14610293578063202c5272146102bc57806321622a9b146102e5578063248a9ca31461030e575b600080fd5b34801561026257600080fd5b5061027d60048036038101906102789190614941565b6109ea565b60405161028a9190614989565b60405180910390f35b34801561029f57600080fd5b506102ba60048036038101906102b591906149da565b610a64565b005b3480156102c857600080fd5b506102e360048036038101906102de9190614b4d565b610dea565b005b3480156102f157600080fd5b5061030c600480360381019061030791906149da565b610e3d565b005b34801561031a57600080fd5b5061033560048036038101906103309190614bcc565b610fe6565b6040516103429190614c08565b60405180910390f35b34801561035757600080fd5b50610372600480360381019061036d9190614c81565b611005565b60405161037f9190614989565b60405180910390f35b34801561039457600080fd5b506103af60048036038101906103aa9190614cae565b611038565b005b3480156103bd57600080fd5b506103d860048036038101906103d39190614d0a565b6112e4565b005b3480156103e657600080fd5b5061040160048036038101906103fc9190614d4a565b611305565b005b34801561040f57600080fd5b5061042a60048036038101906104259190614d9d565b611388565b005b34801561043857600080fd5b50610453600480360381019061044e9190614d0a565b611826565b005b34801561046157600080fd5b5061046a6118a9565b6040516104779190614dec565b60405180910390f35b34801561048c57600080fd5b506104a760048036038101906104a291906149da565b6118b3565b6040516104b49190614e16565b60405180910390f35b3480156104c957600080fd5b506104e460048036038101906104df9190614c81565b611aac565b005b3480156104f257600080fd5b5061050d60048036038101906105089190614e5d565b611b42565b005b34801561051b57600080fd5b50610536600480360381019061053191906149da565b611cf1565b005b34801561054457600080fd5b5061055f600480360381019061055a91906149da565b611ea5565b005b34801561056d57600080fd5b5061058860048036038101906105839190614c81565b6122af565b005b6105a4600480360381019061059f91906149da565b612345565b005b3480156105b257600080fd5b506105bb612746565b6040516105c89190614c08565b60405180910390f35b3480156105dd57600080fd5b506105f860048036038101906105f391906149da565b61276a565b005b34801561060657600080fd5b50610621600480360381019061061c9190614c81565b6129a6565b005b34801561062f57600080fd5b5061064a60048036038101906106459190614d9d565b612a3c565b604051610658929190614ee8565b60405180910390f35b34801561066d57600080fd5b50610688600480360381019061068391906149da565b612af8565b005b34801561069657600080fd5b506106b160048036038101906106ac9190614d0a565b612d07565b6040516106be9190614989565b60405180910390f35b3480156106d357600080fd5b506106dc612d71565b6040516106e99190614c08565b60405180910390f35b3480156106fe57600080fd5b50610719600480360381019061071491906149da565b612d95565b005b34801561072757600080fd5b50610742600480360381019061073d9190614c81565b612f5a565b005b34801561075057600080fd5b50610759612ff0565b6040516107669190614c08565b60405180910390f35b34801561077b57600080fd5b5061079660048036038101906107919190614d9d565b612ff7565b6040516107a39190614989565b60405180910390f35b3480156107b857600080fd5b506107d360048036038101906107ce9190614f11565b613062565b005b3480156107e157600080fd5b506107fc60048036038101906107f79190614d4a565b613438565b005b34801561080a57600080fd5b5061082560048036038101906108209190614d9d565b6134dc565b6040516108329190614e16565b60405180910390f35b34801561084757600080fd5b50610862600480360381019061085d9190614c81565b61355a565b005b34801561087057600080fd5b5061088b600480360381019061088691906149da565b6135f0565b005b34801561089957600080fd5b506108a26139b7565b6040516108af9190614c08565b60405180910390f35b3480156108c457600080fd5b506108df60048036038101906108da9190614d0a565b6139db565b005b3480156108ed57600080fd5b5061090860048036038101906109039190614c81565b6139fc565b005b34801561091657600080fd5b50610931600480360381019061092c9190614c81565b613a92565b60405161093e919061501c565b60405180910390f35b34801561095357600080fd5b5061096e600480360381019061096991906149da565b613b87565b60405161097b91906152da565b60405180910390f35b34801561099057600080fd5b506109ab60048036038101906109a691906149da565b61402c565b005b3480156109b957600080fd5b506109d460048036038101906109cf9190614c81565b614287565b6040516109e19190614989565b60405180910390f35b60007f7965db0b000000000000000000000000000000000000000000000000000000007bffffffffffffffffffffffffffffffffffffffffffffffffffffffff1916827bffffffffffffffffffffffffffffffffffffffffffffffffffffffff19161480610a5d5750610a5c826142ba565b5b9050919050565b8060065411610aa8576040517f08c379a0000000000000000000000000000000000000000000000000000000008152600401610a9f90615359565b60405180910390fd5b60006005811115610abc57610abb61505c565b5b6005600083815260200190815260200160002060050160019054906101000a900460ff166005811115610af257610af161505c565b5b14610b32576040517f08c379a0000000000000000000000000000000000000000000000000000000008152600401610b29906153c5565b60405180910390fd5b600060056000838152602001908152602001600020600e0160003373ffffffffffffffffffffffffffffffffffffffff1673ffffffffffffffffffffffffffffffffffffffff1681526020019081526020016000206000015411610bcb576040517f08c379a0000000000000000000000000000000000000000000000000000000008152600401610bc290615431565b60405180910390fd5b600060056000838152602001908152602001600020600e0160003373ffffffffffffffffffffffffffffffffffffffff1673ffffffffffffffffffffffffffffffffffffffff168152602001908152602001600020600001549050600060056000848152602001908152602001600020600e0160003373ffffffffffffffffffffffffffffffffffffffff1673ffffffffffffffffffffffffffffffffffffffff168152602001908152602001600020600101549050600060056000858152602001908152602001600020600e0160003373ffffffffffffffffffffffffffffffffffffffff1673ffffffffffffffffffffffffffffffffffffffff16815260200190815260200160002060000181905550600060056000858152602001908152602001600020600e0160003373ffffffffffffffffffffffffffffffffffffffff1673ffffffffffffffffffffffffffffffffffffffff1681526020019081526020016000206001018190555081600560008581526020019081526020016000206006016000828254610d5f9190615480565b9250508190555080600560008581526020019081526020016000206007016000828254610d8c9190615480565b925050819055503373ffffffffffffffffffffffffffffffffffffffff166108fc8284610db991906154b4565b9081150290604051600060405180830381858888f19350505050158015610de4573d6000803e3d6000fd5b50505050565b80600760003373ffffffffffffffffffffffffffffffffffffffff1673ffffffffffffffffffffffffffffffffffffffff1681526020019081526020016000206001019081610e3991906156f4565b5050565b8060065411610e81576040517f08c379a0000000000000000000000000000000000000000000000000000000008152600401610e7890615359565b60405180910390fd5b60026005811115610e9557610e9461505c565b5b6005600083815260200190815260200160002060050160019054906101000a900460ff166005811115610ecb57610eca61505c565b5b14610f0b576040517f08c379a0000000000000000000000000000000000000000000000000000000008152600401610f0290615812565b60405180910390fd5b600060056000838152602001908152602001600020600e0160003373ffffffffffffffffffffffffffffffffffffffff1673ffffffffffffffffffffffffffffffffffffffff1681526020019081526020016000206000015411610fa4576040517f08c379a0000000000000000000000000000000000000000000000000000000008152600401610f9b906158a4565b60405180910390fd5b60046005600083815260200190815260200160002060050160016101000a81548160ff02191690836005811115610fde57610fdd61505c565b5b021790555050565b6000806000838152602001908152602001600020600101549050919050565b60006110317fa49807205ce4d355092ef5a8a18f56e8913cf4a201fbe287825b095693c2177583612d07565b9050919050565b816006541161107c576040517f08c379a000000000000000000000000000000000000000000000000000000000815260040161107390615359565b60405180910390fd5b600060058111156110905761108f61505c565b5b6005600084815260200190815260200160002060050160019054906101000a900460ff1660058111156110c6576110c561505c565b5b14611106576040517f08c379a00000000000000000000000000000000000000000000000000000000081526004016110fd906153c5565b60405180910390fd5b6000151560056000848152602001908152602001600020600f0160003373ffffffffffffffffffffffffffffffffffffffff1673ffffffffffffffffffffffffffffffffffffffff16815260200190815260200160002060009054906101000a900460ff161515146111ad576040517f08c379a00000000000000000000000000000000000000000000000000000000081526004016111a490615936565b60405180910390fd5b80600760003373ffffffffffffffffffffffffffffffffffffffff1673ffffffffffffffffffffffffffffffffffffffff16815260200190815260200160002060010190816111fc91906156f4565b50600160056000848152602001908152602001600020600f0160003373ffffffffffffffffffffffffffffffffffffffff1673ffffffffffffffffffffffffffffffffffffffff16815260200190815260200160002060006101000a81548160ff02191690831515021790555060056000838152602001908152602001600020600d01339080600181540180825580915050600190039060005260206000200160009091909190916101000a81548173ffffffffffffffffffffffffffffffffffffffff021916908373ffffffffffffffffffffffffffffffffffffffff1602179055505050565b6112ed82610fe6565b6112f681614324565b6113008383614338565b505050565b61132f7fa49807205ce4d355092ef5a8a18f56e8913cf4a201fbe287825b095693c2177533612d07565b61136e576040517f08c379a0000000000000000000000000000000000000000000000000000000008152600401611365906159a2565b60405180910390fd5b826001819055508160028190555080600381905550505050565b81600654116113cc576040517f08c379a00000000000000000000000000000000000000000000000000000000081526004016113c390615359565b60405180910390fd5b42600560008481526020019081526020016000206009015411611424576040517f08c379a000000000000000000000000000000000000000000000000000000000815260040161141b90615a0e565b60405180910390fd5b600160058111156114385761143761505c565b5b6005600084815260200190815260200160002060050160019054906101000a900460ff16600581111561146e5761146d61505c565b5b146114ae576040517f08c379a00000000000000000000000000000000000000000000000000000000081526004016114a590615a7a565b60405180910390fd5b6001151560056000848152602001908152602001600020600f0160008373ffffffffffffffffffffffffffffffffffffffff1673ffffffffffffffffffffffffffffffffffffffff16815260200190815260200160002060009054906101000a900460ff16151514611555576040517f08c379a000000000000000000000000000000000000000000000000000000000815260040161154c90615b0c565b60405180910390fd5b600060056000848152602001908152602001600020600e0160003373ffffffffffffffffffffffffffffffffffffffff1673ffffffffffffffffffffffffffffffffffffffff16815260200190815260200160002060000154116115ee576040517f08c379a00000000000000000000000000000000000000000000000000000000081526004016115e590615b78565b60405180910390fd5b600073ffffffffffffffffffffffffffffffffffffffff166005600084815260200190815260200160002060100160003373ffffffffffffffffffffffffffffffffffffffff1673ffffffffffffffffffffffffffffffffffffffff16815260200190815260200160002060009054906101000a900473ffffffffffffffffffffffffffffffffffffffff1673ffffffffffffffffffffffffffffffffffffffff16146116d0576040517f08c379a00000000000000000000000000000000000000000000000000000000081526004016116c790615be4565b60405180910390fd5b806005600084815260200190815260200160002060100160003373ffffffffffffffffffffffffffffffffffffffff1673ffffffffffffffffffffffffffffffffffffffff16815260200190815260200160002060006101000a81548173ffffffffffffffffffffffffffffffffffffffff021916908373ffffffffffffffffffffffffffffffffffffffff16021790555060056000838152602001908152602001600020600e0160003373ffffffffffffffffffffffffffffffffffffffff1673ffffffffffffffffffffffffffffffffffffffff168152602001908152602001600020600001546005600084815260200190815260200160002060110160008373ffffffffffffffffffffffffffffffffffffffff1673ffffffffffffffffffffffffffffffffffffffff168152602001908152602001600020600082825461181b91906154b4565b925050819055505050565b61182e614418565b73ffffffffffffffffffffffffffffffffffffffff168173ffffffffffffffffffffffffffffffffffffffff161461189b576040517f08c379a000000000000000000000000000000000000000000000000000000000815260040161189290615c76565b60405180910390fd5b6118a58282614420565b5050565b6000600654905090565b60008060009050600080600090505b60056000868152602001908152602001600020600d0180549050811015611aa1578260056000878152602001908152602001600020601101600060056000898152602001908152602001600020600d01848154811061192457611923615c96565b5b9060005260206000200160009054906101000a900473ffffffffffffffffffffffffffffffffffffffff1673ffffffffffffffffffffffffffffffffffffffff1673ffffffffffffffffffffffffffffffffffffffff168152602001908152602001600020541115611a8e5760056000868152602001908152602001600020601101600060056000888152602001908152602001600020600d0183815481106119d0576119cf615c96565b5b9060005260206000200160009054906101000a900473ffffffffffffffffffffffffffffffffffffffff1673ffffffffffffffffffffffffffffffffffffffff1673ffffffffffffffffffffffffffffffffffffffff16815260200190815260200160002054925060056000868152602001908152602001600020600d018181548110611a6057611a5f615c96565b5b9060005260206000200160009054906101000a900473ffffffffffffffffffffffffffffffffffffffff1691505b8080611a9990615cc5565b9150506118c2565b508092505050919050565b611ad67f10727a1f9dcafcdc62117a955136b7425444d71bf08083d4aa5892e20e27814d33612d07565b611b15576040517f08c379a0000000000000000000000000000000000000000000000000000000008152600401611b0c90615d59565b60405180910390fd5b611b3f7f10727a1f9dcafcdc62117a955136b7425444d71bf08083d4aa5892e20e27814d826139db565b50565b60006006549050600060056000838152602001908152602001600020905060066000815480929190611b7390615cc5565b919050555081816000018190555084816001019081611b9291906156f4565b5083816002019081611ba491906156f4565b50338160030160006101000a81548173ffffffffffffffffffffffffffffffffffffffff021916908373ffffffffffffffffffffffffffffffffffffffff160217905550428160040181905550828160050160006101000a81548160ff02191690831515021790555060008160050160016101000a81548160ff02191690836005811115611c3557611c3461505c565b5b021790555060008160060181905550600081600701819055506000816008018190555060008160090181905550600081600a0160006101000a81548173ffffffffffffffffffffffffffffffffffffffff021916908373ffffffffffffffffffffffffffffffffffffffff160217905550600081600b0160006101000a81548173ffffffffffffffffffffffffffffffffffffffff021916908373ffffffffffffffffffffffffffffffffffffffff1602179055505050505050565b8060065411611d35576040517f08c379a0000000000000000000000000000000000000000000000000000000008152600401611d2c90615359565b60405180910390fd5b60026005811115611d4957611d4861505c565b5b6005600083815260200190815260200160002060050160019054906101000a900460ff166005811115611d7f57611d7e61505c565b5b14611dbf576040517f08c379a0000000000000000000000000000000000000000000000000000000008152600401611db690615812565b60405180910390fd5b3373ffffffffffffffffffffffffffffffffffffffff1660056000838152602001908152602001600020600a0160009054906101000a900473ffffffffffffffffffffffffffffffffffffffff1673ffffffffffffffffffffffffffffffffffffffff1614611e63576040517f08c379a0000000000000000000000000000000000000000000000000000000008152600401611e5a90615deb565b60405180910390fd5b60046005600083815260200190815260200160002060050160016101000a81548160ff02191690836005811115611e9d57611e9c61505c565b5b021790555050565b8060065411611ee9576040517f08c379a0000000000000000000000000000000000000000000000000000000008152600401611ee090615359565b60405180910390fd5b60026005811115611efd57611efc61505c565b5b6005600083815260200190815260200160002060050160019054906101000a900460ff166005811115611f3357611f3261505c565b5b14611f73576040517f08c379a0000000000000000000000000000000000000000000000000000000008152600401611f6a90615812565b60405180910390fd5b3373ffffffffffffffffffffffffffffffffffffffff1660056000838152602001908152602001600020600a0160009054906101000a900473ffffffffffffffffffffffffffffffffffffffff1673ffffffffffffffffffffffffffffffffffffffff1614612017576040517f08c379a000000000000000000000000000000000000000000000000000000000815260040161200e90615deb565b60405180910390fd5b600060056000838152602001908152602001600020600a0160006101000a81548173ffffffffffffffffffffffffffffffffffffffff021916908373ffffffffffffffffffffffffffffffffffffffff16021790555060006005600083815260200190815260200160002060050160016101000a81548160ff021916908360058111156120a7576120a661505c565b5b021790555060005b60056000838152602001908152602001600020600c01805490508110156121c857600060056000848152602001908152602001600020601001600060056000868152602001908152602001600020600c01848154811061211257612111615c96565b5b9060005260206000200160009054906101000a900473ffffffffffffffffffffffffffffffffffffffff1673ffffffffffffffffffffffffffffffffffffffff1673ffffffffffffffffffffffffffffffffffffffff16815260200190815260200160002060006101000a81548173ffffffffffffffffffffffffffffffffffffffff021916908373ffffffffffffffffffffffffffffffffffffffff16021790555080806121c090615cc5565b9150506120af565b5060005b60056000838152602001908152602001600020600d01805490508110156122ab57600060056000848152602001908152602001600020601101600060056000868152602001908152602001600020600d01848154811061222f5761222e615c96565b5b9060005260206000200160009054906101000a900473ffffffffffffffffffffffffffffffffffffffff1673ffffffffffffffffffffffffffffffffffffffff1673ffffffffffffffffffffffffffffffffffffffff1681526020019081526020016000208190555080806122a390615cc5565b9150506121cc565b5050565b6122d97fa49807205ce4d355092ef5a8a18f56e8913cf4a201fbe287825b095693c2177533612d07565b612318576040517f08c379a000000000000000000000000000000000000000000000000000000000815260040161230f906159a2565b60405180910390fd5b6123427f1840088ee2a313f51a98ef87ae3c589ebc67f9f164e04c0f891f8aabc5b9abf6826139db565b50565b8060065411612389576040517f08c379a000000000000000000000000000000000000000000000000000000000815260040161238090615359565b60405180910390fd5b6005600082815260200190815260200160002060050160009054906101000a900460ff166123ec576040517f08c379a00000000000000000000000000000000000000000000000000000000081526004016123e390615e57565b60405180910390fd5b60006005811115612400576123ff61505c565b5b6005600083815260200190815260200160002060050160019054906101000a900460ff1660058111156124365761243561505c565b5b14612476576040517f08c379a000000000000000000000000000000000000000000000000000000000815260040161246d906153c5565b60405180910390fd5b600060056000838152602001908152602001600020600e0160003373ffffffffffffffffffffffffffffffffffffffff1673ffffffffffffffffffffffffffffffffffffffff168152602001908152602001600020600001540361254c5760056000828152602001908152602001600020600c01339080600181540180825580915050600190039060005260206000200160009091909190916101000a81548173ffffffffffffffffffffffffffffffffffffffff021916908373ffffffffffffffffffffffffffffffffffffffff1602179055505b60006005600083815260200190815260200160002060100160003373ffffffffffffffffffffffffffffffffffffffff1673ffffffffffffffffffffffffffffffffffffffff16815260200190815260200160002060006101000a81548173ffffffffffffffffffffffffffffffffffffffff021916908373ffffffffffffffffffffffffffffffffffffffff16021790555060006064600154346125f19190615e77565b6125fb9190615ee8565b90506000813461260b9190615480565b90508060056000858152602001908152602001600020600e0160003373ffffffffffffffffffffffffffffffffffffffff1673ffffffffffffffffffffffffffffffffffffffff168152602001908152602001600020600001600082825461267391906154b4565b925050819055508160056000858152602001908152602001600020600e0160003373ffffffffffffffffffffffffffffffffffffffff1673ffffffffffffffffffffffffffffffffffffffff16815260200190815260200160002060010160008282546126e091906154b4565b925050819055508060056000858152602001908152602001600020600601600082825461270d91906154b4565b925050819055508160056000858152602001908152602001600020600701600082825461273a91906154b4565b92505081905550505050565b7fa49807205ce4d355092ef5a8a18f56e8913cf4a201fbe287825b095693c2177581565b80600654116127ae576040517f08c379a00000000000000000000000000000000000000000000000000000000081526004016127a590615359565b60405180910390fd5b600060058111156127c2576127c161505c565b5b6005600083815260200190815260200160002060050160019054906101000a900460ff1660058111156127f8576127f761505c565b5b14612838576040517f08c379a000000000000000000000000000000000000000000000000000000000815260040161282f90615f8b565b60405180910390fd5b42600560008381526020019081526020016000206008015411612890576040517f08c379a000000000000000000000000000000000000000000000000000000000815260040161288790615ff7565b60405180910390fd5b6001151560056000838152602001908152602001600020600f0160003373ffffffffffffffffffffffffffffffffffffffff1673ffffffffffffffffffffffffffffffffffffffff16815260200190815260200160002060009054906101000a900460ff16151514612937576040517f08c379a000000000000000000000000000000000000000000000000000000000815260040161292e90616089565b60405180910390fd5b600060056000838152602001908152602001600020600f0160003373ffffffffffffffffffffffffffffffffffffffff1673ffffffffffffffffffffffffffffffffffffffff16815260200190815260200160002060006101000a81548160ff02191690831515021790555050565b6129d07fa49807205ce4d355092ef5a8a18f56e8913cf4a201fbe287825b095693c2177533612d07565b612a0f576040517f08c379a0000000000000000000000000000000000000000000000000000000008152600401612a06906159a2565b60405180910390fd5b612a397f1840088ee2a313f51a98ef87ae3c589ebc67f9f164e04c0f891f8aabc5b9abf6826112e4565b50565b60008060056000858152602001908152602001600020600e0160008473ffffffffffffffffffffffffffffffffffffffff1673ffffffffffffffffffffffffffffffffffffffff1681526020019081526020016000206000015460056000868152602001908152602001600020600e0160008573ffffffffffffffffffffffffffffffffffffffff1673ffffffffffffffffffffffffffffffffffffffff16815260200190815260200160002060010154915091509250929050565b8060065411612b3c576040517f08c379a0000000000000000000000000000000000000000000000000000000008152600401612b3390615359565b60405180910390fd5b42600560008381526020019081526020016000206008015410612b94576040517f08c379a0000000000000000000000000000000000000000000000000000000008152600401612b8b9061611b565b60405180910390fd5b60006005811115612ba857612ba761505c565b5b6005600083815260200190815260200160002060050160019054906101000a900460ff166005811115612bde57612bdd61505c565b5b14612c1e576040517f08c379a0000000000000000000000000000000000000000000000000000000008152600401612c15906153c5565b60405180910390fd5b6000151560056000838152602001908152602001600020600f0160003373ffffffffffffffffffffffffffffffffffffffff1673ffffffffffffffffffffffffffffffffffffffff16815260200190815260200160002060009054906101000a900460ff16151514612cc5576040517f08c379a0000000000000000000000000000000000000000000000000000000008152600401612cbc90616187565b60405180910390fd5b60016005600083815260200190815260200160002060050160016101000a81548160ff02191690836005811115612cff57612cfe61505c565b5b021790555050565b600080600084815260200190815260200160002060000160008373ffffffffffffffffffffffffffffffffffffffff1673ffffffffffffffffffffffffffffffffffffffff16815260200190815260200160002060009054906101000a900460ff16905092915050565b7f1840088ee2a313f51a98ef87ae3c589ebc67f9f164e04c0f891f8aabc5b9abf681565b8060065411612dd9576040517f08c379a0000000000000000000000000000000000000000000000000000000008152600401612dd090615359565b60405180910390fd5b60016005811115612ded57612dec61505c565b5b6005600083815260200190815260200160002060050160019054906101000a900460ff166005811115612e2357612e2261505c565b5b14612e63576040517f08c379a0000000000000000000000000000000000000000000000000000000008152600401612e5a90615a7a565b60405180910390fd5b42600560008381526020019081526020016000206009015410612ebb576040517f08c379a0000000000000000000000000000000000000000000000000000000008152600401612eb2906161f3565b60405180910390fd5b60026005600083815260200190815260200160002060050160016101000a81548160ff02191690836005811115612ef557612ef461505c565b5b0217905550612f03816118b3565b60056000838152602001908152602001600020600a0160006101000a81548173ffffffffffffffffffffffffffffffffffffffff021916908373ffffffffffffffffffffffffffffffffffffffff16021790555050565b612f847f10727a1f9dcafcdc62117a955136b7425444d71bf08083d4aa5892e20e27814d33612d07565b612fc3576040517f08c379a0000000000000000000000000000000000000000000000000000000008152600401612fba90615d59565b60405180910390fd5b612fed7fa49807205ce4d355092ef5a8a18f56e8913cf4a201fbe287825b095693c21775826139db565b50565b6000801b81565b600060056000848152602001908152602001600020600f0160008373ffffffffffffffffffffffffffffffffffffffff1673ffffffffffffffffffffffffffffffffffffffff16815260200190815260200160002060009054906101000a900460ff16905092915050565b81600654116130a6576040517f08c379a000000000000000000000000000000000000000000000000000000000815260040161309d90615359565b60405180910390fd5b600460058111156130ba576130b961505c565b5b6005600084815260200190815260200160002060050160019054906101000a900460ff1660058111156130f0576130ef61505c565b5b14613130576040517f08c379a00000000000000000000000000000000000000000000000000000000081526004016131279061625f565b60405180910390fd5b3373ffffffffffffffffffffffffffffffffffffffff1660056000848152602001908152602001600020600b0160009054906101000a900473ffffffffffffffffffffffffffffffffffffffff1673ffffffffffffffffffffffffffffffffffffffff16146131d4576040517f08c379a00000000000000000000000000000000000000000000000000000000081526004016131cb906162cb565b60405180910390fd5b600081101580156131e6575060648111155b613225576040517f08c379a000000000000000000000000000000000000000000000000000000000815260040161321c9061635d565b60405180910390fd5b60006002600560008581526020019081526020016000206007015461324a9190615ee8565b90503373ffffffffffffffffffffffffffffffffffffffff166108fc829081150290604051600060405180830381858888f19350505050158015613292573d6000803e3d6000fd5b506000606483836132a39190615e77565b6132ad9190615ee8565b9050600081836132bd9190615480565b905060056000868152602001908152602001600020600a0160009054906101000a900473ffffffffffffffffffffffffffffffffffffffff1673ffffffffffffffffffffffffffffffffffffffff166108fc839081150290604051600060405180830381858888f1935050505015801561333b573d6000803e3d6000fd5b5060005b60056000878152602001908152602001600020600c01805490508110156134305760056000878152602001908152602001600020600c01818154811061338857613387615c96565b5b9060005260206000200160009054906101000a900473ffffffffffffffffffffffffffffffffffffffff1673ffffffffffffffffffffffffffffffffffffffff166108fc60056000898152602001908152602001600020600c0180549050846133f19190615ee8565b9081150290604051600060405180830381858888f1935050505015801561341c573d6000803e3d6000fd5b50808061342890615cc5565b91505061333f565b505050505050565b6134627fa49807205ce4d355092ef5a8a18f56e8913cf4a201fbe287825b095693c2177533612d07565b6134a1576040517f08c379a0000000000000000000000000000000000000000000000000000000008152600401613498906159a2565b60405180910390fd5b816005600085815260200190815260200160002060080181905550806005600085815260200190815260200160002060090181905550505050565b60006005600084815260200190815260200160002060100160008373ffffffffffffffffffffffffffffffffffffffff1673ffffffffffffffffffffffffffffffffffffffff16815260200190815260200160002060009054906101000a900473ffffffffffffffffffffffffffffffffffffffff16905092915050565b6135847fa49807205ce4d355092ef5a8a18f56e8913cf4a201fbe287825b095693c2177533612d07565b6135c3576040517f08c379a00000000000000000000000000000000000000000000000000000000081526004016135ba90615d59565b60405180910390fd5b6135ed7fa49807205ce4d355092ef5a8a18f56e8913cf4a201fbe287825b095693c21775826112e4565b50565b8060065411613634576040517f08c379a000000000000000000000000000000000000000000000000000000000815260040161362b90615359565b60405180910390fd5b600460058111156136485761364761505c565b5b6005600083815260200190815260200160002060050160019054906101000a900460ff16600581111561367e5761367d61505c565b5b146136be576040517f08c379a00000000000000000000000000000000000000000000000000000000081526004016136b59061625f565b60405180910390fd5b3373ffffffffffffffffffffffffffffffffffffffff1660056000838152602001908152602001600020600a0160009054906101000a900473ffffffffffffffffffffffffffffffffffffffff1673ffffffffffffffffffffffffffffffffffffffff1614806137845750600060056000838152602001908152602001600020600e0160003373ffffffffffffffffffffffffffffffffffffffff1673ffffffffffffffffffffffffffffffffffffffff16815260200190815260200160002060000154115b6137c3576040517f08c379a00000000000000000000000000000000000000000000000000000000081526004016137ba90616415565b60405180910390fd5b600073ffffffffffffffffffffffffffffffffffffffff1660056000838152602001908152602001600020600b0160009054906101000a900473ffffffffffffffffffffffffffffffffffffffff1673ffffffffffffffffffffffffffffffffffffffff1614613868576040517f08c379a000000000000000000000000000000000000000000000000000000000815260040161385f90616481565b60405180910390fd5b600254600760003373ffffffffffffffffffffffffffffffffffffffff1673ffffffffffffffffffffffffffffffffffffffff1681526020019081526020016000206000015410156138ef576040517f08c379a00000000000000000000000000000000000000000000000000000000081526004016138e690616513565b60405180910390fd5b6000151561391d7f1840088ee2a313f51a98ef87ae3c589ebc67f9f164e04c0f891f8aabc5b9abf633612d07565b15151461395f576040517f08c379a0000000000000000000000000000000000000000000000000000000008152600401613956906165a5565b60405180910390fd5b3360056000838152602001908152602001600020600b0160006101000a81548173ffffffffffffffffffffffffffffffffffffffff021916908373ffffffffffffffffffffffffffffffffffffffff16021790555050565b7f10727a1f9dcafcdc62117a955136b7425444d71bf08083d4aa5892e20e27814d81565b6139e482610fe6565b6139ed81614324565b6139f78383614420565b505050565b613a267f10727a1f9dcafcdc62117a955136b7425444d71bf08083d4aa5892e20e27814d33612d07565b613a65576040517f08c379a0000000000000000000000000000000000000000000000000000000008152600401613a5c90615d59565b60405180910390fd5b613a8f7f10727a1f9dcafcdc62117a955136b7425444d71bf08083d4aa5892e20e27814d826112e4565b50565b613a9a6147ef565b600760008373ffffffffffffffffffffffffffffffffffffffff1673ffffffffffffffffffffffffffffffffffffffff16815260200190815260200160002060405180604001604052908160008201548152602001600182018054613afe90615517565b80601f0160208091040260200160405190810160405280929190818152602001828054613b2a90615517565b8015613b775780601f10613b4c57610100808354040283529160200191613b77565b820191906000526020600020905b815481529060010190602001808311613b5a57829003601f168201915b5050505050815250509050919050565b613b8f614809565b604051806101e0016040528060056000858152602001908152602001600020600001548152602001600560008581526020019081526020016000206001018054613bd890615517565b80601f0160208091040260200160405190810160405280929190818152602001828054613c0490615517565b8015613c515780601f10613c2657610100808354040283529160200191613c51565b820191906000526020600020905b815481529060010190602001808311613c3457829003601f168201915b50505050508152602001600560008581526020019081526020016000206002018054613c7c90615517565b80601f0160208091040260200160405190810160405280929190818152602001828054613ca890615517565b8015613cf55780601f10613cca57610100808354040283529160200191613cf5565b820191906000526020600020905b815481529060010190602001808311613cd857829003601f168201915b505050505081526020016005600085815260200190815260200160002060030160009054906101000a900473ffffffffffffffffffffffffffffffffffffffff1673ffffffffffffffffffffffffffffffffffffffff168152602001600560008581526020019081526020016000206004015481526020016005600085815260200190815260200160002060050160009054906101000a900460ff16151581526020016005600085815260200190815260200160002060050160019054906101000a900460ff166005811115613dce57613dcd61505c565b5b81526020016005600085815260200190815260200160002060060154815260200160056000858152602001908152602001600020600701548152602001600560008581526020019081526020016000206008015481526020016005600085815260200190815260200160002060090154815260200160056000858152602001908152602001600020600a0160009054906101000a900473ffffffffffffffffffffffffffffffffffffffff1673ffffffffffffffffffffffffffffffffffffffff16815260200160056000858152602001908152602001600020600b0160009054906101000a900473ffffffffffffffffffffffffffffffffffffffff1673ffffffffffffffffffffffffffffffffffffffff16815260200160056000858152602001908152602001600020600c01805480602002602001604051908101604052809291908181526020018280548015613f7d57602002820191906000526020600020905b8160009054906101000a900473ffffffffffffffffffffffffffffffffffffffff1673ffffffffffffffffffffffffffffffffffffffff1681526020019060010190808311613f33575b5050505050815260200160056000858152602001908152602001600020600d0180548060200260200160405190810160405280929190818152602001828054801561401d57602002820191906000526020600020905b8160009054906101000a900473ffffffffffffffffffffffffffffffffffffffff1673ffffffffffffffffffffffffffffffffffffffff1681526020019060010190808311613fd3575b50505050508152509050919050565b8060065411614070576040517f08c379a000000000000000000000000000000000000000000000000000000000815260040161406790615359565b60405180910390fd5b3373ffffffffffffffffffffffffffffffffffffffff166005600083815260200190815260200160002060030160009054906101000a900473ffffffffffffffffffffffffffffffffffffffff1673ffffffffffffffffffffffffffffffffffffffff1614614114576040517f08c379a000000000000000000000000000000000000000000000000000000000815260040161410b90616637565b60405180910390fd5b600060058111156141285761412761505c565b5b6005600083815260200190815260200160002060050160019054906101000a900460ff16600581111561415e5761415d61505c565b5b1461419e576040517f08c379a0000000000000000000000000000000000000000000000000000000008152600401614195906153c5565b60405180910390fd5b6000151560056000838152602001908152602001600020600f0160003373ffffffffffffffffffffffffffffffffffffffff1673ffffffffffffffffffffffffffffffffffffffff16815260200190815260200160002060009054906101000a900460ff16151514614245576040517f08c379a000000000000000000000000000000000000000000000000000000000815260040161423c90616187565b60405180910390fd5b60016005600083815260200190815260200160002060050160016101000a81548160ff0219169083600581111561427f5761427e61505c565b5b021790555050565b60006142b37f10727a1f9dcafcdc62117a955136b7425444d71bf08083d4aa5892e20e27814d83612d07565b9050919050565b60007f01ffc9a7000000000000000000000000000000000000000000000000000000007bffffffffffffffffffffffffffffffffffffffffffffffffffffffff1916827bffffffffffffffffffffffffffffffffffffffffffffffffffffffff1916149050919050565b61433581614330614418565b614501565b50565b6143428282612d07565b61441457600160008084815260200190815260200160002060000160008373ffffffffffffffffffffffffffffffffffffffff1673ffffffffffffffffffffffffffffffffffffffff16815260200190815260200160002060006101000a81548160ff0219169083151502179055506143b9614418565b73ffffffffffffffffffffffffffffffffffffffff168173ffffffffffffffffffffffffffffffffffffffff16837f2f8788117e7eff1d82e926ec794901d17c78024a50270940304540a733656f0d60405160405180910390a45b5050565b600033905090565b61442a8282612d07565b156144fd57600080600084815260200190815260200160002060000160008373ffffffffffffffffffffffffffffffffffffffff1673ffffffffffffffffffffffffffffffffffffffff16815260200190815260200160002060006101000a81548160ff0219169083151502179055506144a2614418565b73ffffffffffffffffffffffffffffffffffffffff168173ffffffffffffffffffffffffffffffffffffffff16837ff6391f5c32d9c69d2a47ea670b442974b53935d1edc7fd64eb21e047a839171b60405160405180910390a45b5050565b61450b8282612d07565b6145825761451881614586565b6145268360001c60206145b3565b60405160200161453792919061672b565b6040516020818303038152906040526040517f08c379a0000000000000000000000000000000000000000000000000000000008152600401614579919061679e565b60405180910390fd5b5050565b60606145ac8273ffffffffffffffffffffffffffffffffffffffff16601460ff166145b3565b9050919050565b6060600060028360026145c69190615e77565b6145d091906154b4565b67ffffffffffffffff8111156145e9576145e8614a22565b5b6040519080825280601f01601f19166020018201604052801561461b5781602001600182028036833780820191505090505b5090507f30000000000000000000000000000000000000000000000000000000000000008160008151811061465357614652615c96565b5b60200101907effffffffffffffffffffffffffffffffffffffffffffffffffffffffffffff1916908160001a9053507f7800000000000000000000000000000000000000000000000000000000000000816001815181106146b7576146b6615c96565b5b60200101907effffffffffffffffffffffffffffffffffffffffffffffffffffffffffffff1916908160001a905350600060018460026146f79190615e77565b61470191906154b4565b90505b60018111156147a1577f3031323334353637383961626364656600000000000000000000000000000000600f86166010811061474357614742615c96565b5b1a60f81b82828151811061475a57614759615c96565b5b60200101907effffffffffffffffffffffffffffffffffffffffffffffffffffffffffffff1916908160001a905350600485901c94508061479a906167c0565b9050614704565b50600084146147e5576040517f08c379a00000000000000000000000000000000000000000000000000000000081526004016147dc90616835565b60405180910390fd5b8091505092915050565b604051806040016040528060008152602001606081525090565b604051806101e00160405280600081526020016060815260200160608152602001600073ffffffffffffffffffffffffffffffffffffffff168152602001600081526020016000151581526020016000600581111561486b5761486a61505c565b5b815260200160008152602001600081526020016000815260200160008152602001600073ffffffffffffffffffffffffffffffffffffffff168152602001600073ffffffffffffffffffffffffffffffffffffffff16815260200160608152602001606081525090565b6000604051905090565b600080fd5b600080fd5b60007fffffffff0000000000000000000000000000000000000000000000000000000082169050919050565b61491e816148e9565b811461492957600080fd5b50565b60008135905061493b81614915565b92915050565b600060208284031215614957576149566148df565b5b60006149658482850161492c565b91505092915050565b60008115159050919050565b6149838161496e565b82525050565b600060208201905061499e600083018461497a565b92915050565b6000819050919050565b6149b7816149a4565b81146149c257600080fd5b50565b6000813590506149d4816149ae565b92915050565b6000602082840312156149f0576149ef6148df565b5b60006149fe848285016149c5565b91505092915050565b600080fd5b600080fd5b6000601f19601f8301169050919050565b7f4e487b7100000000000000000000000000000000000000000000000000000000600052604160045260246000fd5b614a5a82614a11565b810181811067ffffffffffffffff82111715614a7957614a78614a22565b5b80604052505050565b6000614a8c6148d5565b9050614a988282614a51565b919050565b600067ffffffffffffffff821115614ab857614ab7614a22565b5b614ac182614a11565b9050602081019050919050565b82818337600083830152505050565b6000614af0614aeb84614a9d565b614a82565b905082815260208101848484011115614b0c57614b0b614a0c565b5b614b17848285614ace565b509392505050565b600082601f830112614b3457614b33614a07565b5b8135614b44848260208601614add565b91505092915050565b600060208284031215614b6357614b626148df565b5b600082013567ffffffffffffffff811115614b8157614b806148e4565b5b614b8d84828501614b1f565b91505092915050565b6000819050919050565b614ba981614b96565b8114614bb457600080fd5b50565b600081359050614bc681614ba0565b92915050565b600060208284031215614be257614be16148df565b5b6000614bf084828501614bb7565b91505092915050565b614c0281614b96565b82525050565b6000602082019050614c1d6000830184614bf9565b92915050565b600073ffffffffffffffffffffffffffffffffffffffff82169050919050565b6000614c4e82614c23565b9050919050565b614c5e81614c43565b8114614c6957600080fd5b50565b600081359050614c7b81614c55565b92915050565b600060208284031215614c9757614c966148df565b5b6000614ca584828501614c6c565b91505092915050565b60008060408385031215614cc557614cc46148df565b5b6000614cd3858286016149c5565b925050602083013567ffffffffffffffff811115614cf457614cf36148e4565b5b614d0085828601614b1f565b9150509250929050565b60008060408385031215614d2157614d206148df565b5b6000614d2f85828601614bb7565b9250506020614d4085828601614c6c565b9150509250929050565b600080600060608486031215614d6357614d626148df565b5b6000614d71868287016149c5565b9350506020614d82868287016149c5565b9250506040614d93868287016149c5565b9150509250925092565b60008060408385031215614db457614db36148df565b5b6000614dc2858286016149c5565b9250506020614dd385828601614c6c565b9150509250929050565b614de6816149a4565b82525050565b6000602082019050614e016000830184614ddd565b92915050565b614e1081614c43565b82525050565b6000602082019050614e2b6000830184614e07565b92915050565b614e3a8161496e565b8114614e4557600080fd5b50565b600081359050614e5781614e31565b92915050565b600080600060608486031215614e7657614e756148df565b5b600084013567ffffffffffffffff811115614e9457614e936148e4565b5b614ea086828701614b1f565b935050602084013567ffffffffffffffff811115614ec157614ec06148e4565b5b614ecd86828701614b1f565b9250506040614ede86828701614e48565b9150509250925092565b6000604082019050614efd6000830185614ddd565b614f0a6020830184614ddd565b9392505050565b60008060408385031215614f2857614f276148df565b5b6000614f36858286016149c5565b9250506020614f47858286016149c5565b9150509250929050565b614f5a816149a4565b82525050565b600081519050919050565b600082825260208201905092915050565b60005b83811015614f9a578082015181840152602081019050614f7f565b60008484015250505050565b6000614fb182614f60565b614fbb8185614f6b565b9350614fcb818560208601614f7c565b614fd481614a11565b840191505092915050565b6000604083016000830151614ff76000860182614f51565b506020830151848203602086015261500f8282614fa6565b9150508091505092915050565b600060208201905081810360008301526150368184614fdf565b905092915050565b61504781614c43565b82525050565b6150568161496e565b82525050565b7f4e487b7100000000000000000000000000000000000000000000000000000000600052602160045260246000fd5b6006811061509c5761509b61505c565b5b50565b60008190506150ad8261508b565b919050565b60006150bd8261509f565b9050919050565b6150cd816150b2565b82525050565b600081519050919050565b600082825260208201905092915050565b6000819050602082019050919050565b600061510b838361503e565b60208301905092915050565b6000602082019050919050565b600061512f826150d3565b61513981856150de565b9350615144836150ef565b8060005b8381101561517557815161515c88826150ff565b975061516783615117565b925050600181019050615148565b5085935050505092915050565b60006101e08301600083015161519b6000860182614f51565b50602083015184820360208601526151b38282614fa6565b915050604083015184820360408601526151cd8282614fa6565b91505060608301516151e2606086018261503e565b5060808301516151f56080860182614f51565b5060a083015161520860a086018261504d565b5060c083015161521b60c08601826150c4565b5060e083015161522e60e0860182614f51565b50610100830151615243610100860182614f51565b50610120830151615258610120860182614f51565b5061014083015161526d610140860182614f51565b5061016083015161528261016086018261503e565b5061018083015161529761018086018261503e565b506101a08301518482036101a08601526152b18282615124565b9150506101c08301518482036101c08601526152cd8282615124565b9150508091505092915050565b600060208201905081810360008301526152f48184615182565b905092915050565b600082825260208201905092915050565b7f50726f6a65637420646f6573206e6f7420657869737400000000000000000000600082015250565b60006153436016836152fc565b915061534e8261530d565b602082019050919050565b6000602082019050818103600083015261537281615336565b9050919050565b7f50726f6a656374206973206e6f74206f70656e00000000000000000000000000600082015250565b60006153af6013836152fc565b91506153ba82615379565b602082019050919050565b600060208201905081810360008301526153de816153a2565b9050919050565b7f596f752068617665206e6f2066756e647320746f207769746864726177000000600082015250565b600061541b601d836152fc565b9150615426826153e5565b602082019050919050565b6000602082019050818103600083015261544a8161540e565b9050919050565b7f4e487b7100000000000000000000000000000000000000000000000000000000600052601160045260246000fd5b600061548b826149a4565b9150615496836149a4565b92508282039050818111156154ae576154ad615451565b5b92915050565b60006154bf826149a4565b91506154ca836149a4565b92508282019050808211156154e2576154e1615451565b5b92915050565b7f4e487b7100000000000000000000000000000000000000000000000000000000600052602260045260246000fd5b6000600282049050600182168061552f57607f821691505b602082108103615542576155416154e8565b5b50919050565b60008190508160005260206000209050919050565b60006020601f8301049050919050565b600082821b905092915050565b6000600883026155aa7fffffffffffffffffffffffffffffffffffffffffffffffffffffffffffffffff8261556d565b6155b4868361556d565b95508019841693508086168417925050509392505050565b6000819050919050565b60006155f16155ec6155e7846149a4565b6155cc565b6149a4565b9050919050565b6000819050919050565b61560b836155d6565b61561f615617826155f8565b84845461557a565b825550505050565b600090565b615634615627565b61563f818484615602565b505050565b5b818110156156635761565860008261562c565b600181019050615645565b5050565b601f8211156156a85761567981615548565b6156828461555d565b81016020851015615691578190505b6156a561569d8561555d565b830182615644565b50505b505050565b600082821c905092915050565b60006156cb600019846008026156ad565b1980831691505092915050565b60006156e483836156ba565b9150826002028217905092915050565b6156fd82614f60565b67ffffffffffffffff81111561571657615715614a22565b5b6157208254615517565b61572b828285615667565b600060209050601f83116001811461575e576000841561574c578287015190505b61575685826156d8565b8655506157be565b601f19841661576c86615548565b60005b828110156157945784890151825560018201915060208501945060208101905061576f565b868310156157b157848901516157ad601f8916826156ba565b8355505b6001600288020188555050505b505050505050565b7f50726f6a656374206973206e6f7420696e2070726f6772657373000000000000600082015250565b60006157fc601a836152fc565b9150615807826157c6565b602082019050919050565b6000602082019050818103600083015261582b816157ef565b9050919050565b7f596f752068617665206e6f742066756e646564207468652070726f6a6563742c60008201527f2063616e2774207374617274206c697469676174696f6e000000000000000000602082015250565b600061588e6037836152fc565b915061589982615832565b604082019050919050565b600060208201905081810360008301526158bd81615881565b9050919050565b7f596f75206861766520616c7265616479206170706c69656420746f207468697360008201527f2070726f6a656374000000000000000000000000000000000000000000000000602082015250565b60006159206028836152fc565b915061592b826158c4565b604082019050919050565b6000602082019050818103600083015261594f81615913565b9050919050565b7f43616c6c6572206973206e6f7420616e2061646d696e00000000000000000000600082015250565b600061598c6016836152fc565b915061599782615956565b602082019050919050565b600060208201905081810360008301526159bb8161597f565b9050919050565b7f566f7465207068617365206973206f7665720000000000000000000000000000600082015250565b60006159f86012836152fc565b9150615a03826159c2565b602082019050919050565b60006020820190508181036000830152615a27816159eb565b9050919050565b7f50726f6a656374206973206e6f7420696e20766f746520706861736500000000600082015250565b6000615a64601c836152fc565b9150615a6f82615a2e565b602082019050919050565b60006020820190508181036000830152615a9381615a57565b9050919050565b7f446576656c6f7070657220686173206e6f74206170706c69656420746f20746860008201527f69732070726f6a65637400000000000000000000000000000000000000000000602082015250565b6000615af6602a836152fc565b9150615b0182615a9a565b604082019050919050565b60006020820190508181036000830152615b2581615ae9565b9050919050565b7f596f752068617665206e6f2066756e647320746f20766f746500000000000000600082015250565b6000615b626019836152fc565b9150615b6d82615b2c565b602082019050919050565b60006020820190508181036000830152615b9181615b55565b9050919050565b7f596f75206861766520616c726561647920766f74656400000000000000000000600082015250565b6000615bce6016836152fc565b9150615bd982615b98565b602082019050919050565b60006020820190508181036000830152615bfd81615bc1565b9050919050565b7f416363657373436f6e74726f6c3a2063616e206f6e6c792072656e6f756e636560008201527f20726f6c657320666f722073656c660000000000000000000000000000000000602082015250565b6000615c60602f836152fc565b9150615c6b82615c04565b604082019050919050565b60006020820190508181036000830152615c8f81615c53565b9050919050565b7f4e487b7100000000000000000000000000000000000000000000000000000000600052603260045260246000fd5b6000615cd0826149a4565b91507fffffffffffffffffffffffffffffffffffffffffffffffffffffffffffffffff8203615d0257615d01615451565b5b600182019050919050565b7f43616c6c6572206973206e6f7420616e2061646d696e206d616e616765720000600082015250565b6000615d43601e836152fc565b9150615d4e82615d0d565b602082019050919050565b60006020820190508181036000830152615d7281615d36565b9050919050565b7f596f7520617265206e6f74207468652063686f73656e20646576656c6f70706560008201527f7200000000000000000000000000000000000000000000000000000000000000602082015250565b6000615dd56021836152fc565b9150615de082615d79565b604082019050919050565b60006020820190508181036000830152615e0481615dc8565b9050919050565b7f50726f6a656374206973206e6f74206f70656e20746f2066756e64696e677300600082015250565b6000615e41601f836152fc565b9150615e4c82615e0b565b602082019050919050565b60006020820190508181036000830152615e7081615e34565b9050919050565b6000615e82826149a4565b9150615e8d836149a4565b9250828202615e9b816149a4565b91508282048414831517615eb257615eb1615451565b5b5092915050565b7f4e487b7100000000000000000000000000000000000000000000000000000000600052601260045260246000fd5b6000615ef3826149a4565b9150615efe836149a4565b925082615f0e57615f0d615eb9565b5b828204905092915050565b7f50726f6a656374206973206e6f74206f70656e20746f2065787465726e616b2060008201527f66756e64696e6773000000000000000000000000000000000000000000000000602082015250565b6000615f756028836152fc565b9150615f8082615f19565b604082019050919050565b60006020820190508181036000830152615fa481615f68565b9050919050565b7f4170706c69636174696f6e20646561646c696e65206973207061737365640000600082015250565b6000615fe1601e836152fc565b9150615fec82615fab565b602082019050919050565b6000602082019050818103600083015261601081615fd4565b9050919050565b7f596f752068617665206e6f74206170706c69656420746f20746869732070726f60008201527f6a65637400000000000000000000000000000000000000000000000000000000602082015250565b60006160736024836152fc565b915061607e82616017565b604082019050919050565b600060208201905081810360008301526160a281616066565b9050919050565b7f4170706c69636174696f6e20646561646c696e65206973206e6f74207061737360008201527f6564000000000000000000000000000000000000000000000000000000000000602082015250565b60006161056022836152fc565b9150616110826160a9565b604082019050919050565b60006020820190508181036000830152616134816160f8565b9050919050565b7f596f752068617665206170706c69656420746f20746869732070726f6a656374600082015250565b60006161716020836152fc565b915061617c8261613b565b602082019050919050565b600060208201905081810360008301526161a081616164565b9050919050565b7f566f7465207068617365206973206e6f74206f76657200000000000000000000600082015250565b60006161dd6016836152fc565b91506161e8826161a7565b602082019050919050565b6000602082019050818103600083015261620c816161d0565b9050919050565b7f50726f6a656374206973206e6f7420696e206c697469676174696f6e00000000600082015250565b6000616249601c836152fc565b915061625482616213565b602082019050919050565b600060208201905081810360008301526162788161623c565b9050919050565b7f596f7520617265206e6f74207468652061726269747261746f72000000000000600082015250565b60006162b5601a836152fc565b91506162c08261627f565b602082019050919050565b600060208201905081810360008301526162e4816162a8565b9050919050565b7f4465636973696f6e206d757374206265206265747765656e203020616e64203160008201527f3030000000000000000000000000000000000000000000000000000000000000602082015250565b60006163476022836152fc565b9150616352826162eb565b604082019050919050565b600060208201905081810360008301526163768161633a565b9050919050565b7f596f752063616e27742068616e646c6520746865206c697469676174696f6e2060008201527f706861736520696620796f752061726520696e766f6c76656420696e2074686560208201527f2070726f6a656374000000000000000000000000000000000000000000000000604082015250565b60006163ff6048836152fc565b915061640a8261637d565b606082019050919050565b6000602082019050818103600083015261642e816163f2565b9050919050565b7f41726269747261746f7220697320616c72656164792073657400000000000000600082015250565b600061646b6019836152fc565b915061647682616435565b602082019050919050565b6000602082019050818103600083015261649a8161645e565b9050919050565b7f596f7520646f6e2774206861766520746865207265717569726564207265707560008201527f746174696f6e20746f2062652061726269747261746f72000000000000000000602082015250565b60006164fd6037836152fc565b9150616508826164a1565b604082019050919050565b6000602082019050818103600083015261652c816164f0565b9050919050565b7f596f75206172652062616e6e65642066726f6d20626565696e6720617262697460008201527f7261746f72000000000000000000000000000000000000000000000000000000602082015250565b600061658f6025836152fc565b915061659a82616533565b604082019050919050565b600060208201905081810360008301526165be81616582565b9050919050565b7f596f7520617265206e6f74207468652063726561746f72206f6620746869732060008201527f70726f6a65637400000000000000000000000000000000000000000000000000602082015250565b60006166216027836152fc565b915061662c826165c5565b604082019050919050565b6000602082019050818103600083015261665081616614565b9050919050565b600081905092915050565b7f416363657373436f6e74726f6c3a206163636f756e7420000000000000000000600082015250565b6000616698601783616657565b91506166a382616662565b601782019050919050565b60006166b982614f60565b6166c38185616657565b93506166d3818560208601614f7c565b80840191505092915050565b7f206973206d697373696e6720726f6c6520000000000000000000000000000000600082015250565b6000616715601183616657565b9150616720826166df565b601182019050919050565b60006167368261668b565b915061674282856166ae565b915061674d82616708565b915061675982846166ae565b91508190509392505050565b600061677082614f60565b61677a81856152fc565b935061678a818560208601614f7c565b61679381614a11565b840191505092915050565b600060208201905081810360008301526167b88184616765565b905092915050565b60006167cb826149a4565b9150600082036167de576167dd615451565b5b600182039050919050565b7f537472696e67733a20686578206c656e67746820696e73756666696369656e74600082015250565b600061681f6020836152fc565b915061682a826167e9565b602082019050919050565b6000602082019050818103600083015261684e81616812565b905091905056fea26469706673582212205e57182a80ea796024cd2b9100b39903c5e934a5e2c72c74f1f34b7acbaf31d264736f6c63430008130033",
  "linkReferences": {},
  "deployedLinkReferences": {}
}