{
  "_format": "hh-sol-artifact-1",
  "contractName": "SourcerAO",
  "sourceName": "contracts/sourcerao.sol",
  "abi": [
    {
      "inputs": [],
      "stateMutability": "nonpayable",
      "type": "constructor"
    },
    {
      "anonymous": false,
      "inputs": [
        {
          "indexed": true,
          "internalType": "bytes32",
          "name": "role",
          "type": "bytes32"
        },
        {
          "indexed": true,
          "internalType": "bytes32",
          "name": "previousAdminRole",
          "type": "bytes32"
        },
        {
          "indexed": true,
          "internalType": "bytes32",
          "name": "newAdminRole",
          "type": "bytes32"
        }
      ],
      "name": "RoleAdminChanged",
      "type": "event"
    },
    {
      "anonymous": false,
      "inputs": [
        {
          "indexed": true,
          "internalType": "bytes32",
          "name": "role",
          "type": "bytes32"
        },
        {
          "indexed": true,
          "internalType": "address",
          "name": "account",
          "type": "address"
        },
        {
          "indexed": true,
          "internalType": "address",
          "name": "sender",
          "type": "address"
        }
      ],
      "name": "RoleGranted",
      "type": "event"
    },
    {
      "anonymous": false,
      "inputs": [
        {
          "indexed": true,
          "internalType": "bytes32",
          "name": "role",
          "type": "bytes32"
        },
        {
          "indexed": true,
          "internalType": "address",
          "name": "account",
          "type": "address"
        },
        {
          "indexed": true,
          "internalType": "address",
          "name": "sender",
          "type": "address"
        }
      ],
      "name": "RoleRevoked",
      "type": "event"
    },
    {
      "inputs": [],
      "name": "ADMIN_MANAGER_ROLE",
      "outputs": [
        {
          "internalType": "bytes32",
          "name": "",
          "type": "bytes32"
        }
      ],
      "stateMutability": "view",
      "type": "function"
    },
    {
      "inputs": [],
      "name": "ADMIN_ROLE",
      "outputs": [
        {
          "internalType": "bytes32",
          "name": "",
          "type": "bytes32"
        }
      ],
      "stateMutability": "view",
      "type": "function"
    },
    {
      "inputs": [],
      "name": "ARBITRATION_BAN",
      "outputs": [
        {
          "internalType": "bytes32",
          "name": "",
          "type": "bytes32"
        }
      ],
      "stateMutability": "view",
      "type": "function"
    },
    {
      "inputs": [],
      "name": "DEFAULT_ADMIN_ROLE",
      "outputs": [
        {
          "internalType": "bytes32",
          "name": "",
          "type": "bytes32"
        }
      ],
      "stateMutability": "view",
      "type": "function"
    },
    {
      "inputs": [
        {
          "internalType": "uint256",
          "name": "id",
          "type": "uint256"
        },
        {
          "internalType": "string",
          "name": "_cv_uri",
          "type": "string"
        }
      ],
      "name": "applyToProject",
      "outputs": [],
      "stateMutability": "nonpayable",
      "type": "function"
    },
    {
      "inputs": [
        {
          "internalType": "address",
          "name": "addr",
          "type": "address"
        }
      ],
      "name": "banArbitrator",
      "outputs": [],
      "stateMutability": "nonpayable",
      "type": "function"
    },
    {
      "inputs": [
        {
          "internalType": "string",
          "name": "_title",
          "type": "string"
        },
        {
          "internalType": "string",
          "name": "_uri",
          "type": "string"
        },
        {
          "internalType": "bool",
          "name": "_open_to_fundings",
          "type": "bool"
        }
      ],
      "name": "createProject",
      "outputs": [],
      "stateMutability": "nonpayable",
      "type": "function"
    },
    {
      "inputs": [
        {
          "internalType": "uint256",
          "name": "id",
          "type": "uint256"
        }
      ],
      "name": "endVotePhase",
      "outputs": [],
      "stateMutability": "nonpayable",
      "type": "function"
    },
    {
      "inputs": [
        {
          "internalType": "uint256",
          "name": "id",
          "type": "uint256"
        }
      ],
      "name": "forceVotePhase",
      "outputs": [],
      "stateMutability": "nonpayable",
      "type": "function"
    },
    {
      "inputs": [
        {
          "internalType": "uint256",
          "name": "id",
          "type": "uint256"
        }
      ],
      "name": "fundProject",
      "outputs": [],
      "stateMutability": "payable",
      "type": "function"
    },
    {
      "inputs": [
        {
          "internalType": "address",
          "name": "addr",
          "type": "address"
        }
      ],
      "name": "getDevelopper",
      "outputs": [
        {
          "components": [
            {
              "internalType": "uint256",
              "name": "reputation",
              "type": "uint256"
            },
            {
              "internalType": "string",
              "name": "cv_uri",
              "type": "string"
            }
          ],
          "internalType": "struct Developpers_attributes",
          "name": "",
          "type": "tuple"
        }
      ],
      "stateMutability": "view",
      "type": "function"
    },
    {
      "inputs": [
        {
          "internalType": "uint256",
          "name": "id",
          "type": "uint256"
        },
        {
          "internalType": "address",
          "name": "addr",
          "type": "address"
        }
      ],
      "name": "getFunds",
      "outputs": [
        {
          "internalType": "uint256",
          "name": "",
          "type": "uint256"
        },
        {
          "internalType": "uint256",
          "name": "",
          "type": "uint256"
        }
      ],
      "stateMutability": "view",
      "type": "function"
    },
    {
      "inputs": [
        {
          "internalType": "uint256",
          "name": "id",
          "type": "uint256"
        }
      ],
      "name": "getProject",
      "outputs": [
        {
          "components": [
            {
              "internalType": "uint256",
              "name": "id",
              "type": "uint256"
            },
            {
              "internalType": "string",
              "name": "title",
              "type": "string"
            },
            {
              "internalType": "string",
              "name": "uri",
              "type": "string"
            },
            {
              "internalType": "address",
              "name": "creator",
              "type": "address"
            },
            {
              "internalType": "uint256",
              "name": "creation_date",
              "type": "uint256"
            },
            {
              "internalType": "bool",
              "name": "open_to_fundings",
              "type": "bool"
            },
            {
              "internalType": "enum ProjectState",
              "name": "state",
              "type": "uint8"
            },
            {
              "internalType": "uint256",
              "name": "total_bounty",
              "type": "uint256"
            },
            {
              "internalType": "uint256",
              "name": "total_bail",
              "type": "uint256"
            },
            {
              "internalType": "uint256",
              "name": "application_deadline",
              "type": "uint256"
            },
            {
              "internalType": "uint256",
              "name": "vote_deadline",
              "type": "uint256"
            },
            {
              "internalType": "address",
              "name": "chosen_dev",
              "type": "address"
            },
            {
              "internalType": "address",
              "name": "arbitrator",
              "type": "address"
            },
            {
              "internalType": "address[]",
              "name": "funders_addr",
              "type": "address[]"
            },
            {
              "internalType": "address[]",
              "name": "developpers_addr",
              "type": "address[]"
            }
          ],
          "internalType": "struct Project_view",
          "name": "",
          "type": "tuple"
        }
      ],
      "stateMutability": "view",
      "type": "function"
    },
    {
      "inputs": [],
      "name": "getProjectCount",
      "outputs": [
        {
          "internalType": "uint256",
          "name": "",
          "type": "uint256"
        }
      ],
      "stateMutability": "view",
      "type": "function"
    },
    {
      "inputs": [
        {
          "internalType": "bytes32",
          "name": "role",
          "type": "bytes32"
        }
      ],
      "name": "getRoleAdmin",
      "outputs": [
        {
          "internalType": "bytes32",
          "name": "",
          "type": "bytes32"
        }
      ],
      "stateMutability": "view",
      "type": "function"
    },
    {
      "inputs": [
        {
          "internalType": "uint256",
          "name": "id",
          "type": "uint256"
        },
        {
          "internalType": "address",
          "name": "addr",
          "type": "address"
        }
      ],
      "name": "getVote",
      "outputs": [
        {
          "internalType": "address",
          "name": "",
          "type": "address"
        }
      ],
      "stateMutability": "view",
      "type": "function"
    },
    {
      "inputs": [
        {
          "internalType": "uint256",
          "name": "id",
          "type": "uint256"
        }
      ],
      "name": "getWinner",
      "outputs": [
        {
          "internalType": "address",
          "name": "",
          "type": "address"
        }
      ],
      "stateMutability": "view",
      "type": "function"
    },
    {
      "inputs": [
        {
          "internalType": "address",
          "name": "_address",
          "type": "address"
        }
      ],
      "name": "grantAdminManagerRole",
      "outputs": [],
      "stateMutability": "nonpayable",
      "type": "function"
    },
    {
      "inputs": [
        {
          "internalType": "address",
          "name": "_address",
          "type": "address"
        }
      ],
      "name": "grantAdminRole",
      "outputs": [],
      "stateMutability": "nonpayable",
      "type": "function"
    },
    {
      "inputs": [
        {
          "internalType": "bytes32",
          "name": "role",
          "type": "bytes32"
        },
        {
          "internalType": "address",
          "name": "account",
          "type": "address"
        }
      ],
      "name": "grantRole",
      "outputs": [],
      "stateMutability": "nonpayable",
      "type": "function"
    },
    {
      "inputs": [
        {
          "internalType": "uint256",
          "name": "id",
          "type": "uint256"
        },
        {
          "internalType": "uint256",
          "name": "decision",
          "type": "uint256"
        }
      ],
      "name": "handleArbitrationPhase",
      "outputs": [],
      "stateMutability": "nonpayable",
      "type": "function"
    },
    {
      "inputs": [
        {
          "internalType": "uint256",
          "name": "id",
          "type": "uint256"
        }
      ],
      "name": "handleLitigationPhase",
      "outputs": [],
      "stateMutability": "nonpayable",
      "type": "function"
    },
    {
      "inputs": [
        {
          "internalType": "uint256",
          "name": "id",
          "type": "uint256"
        },
        {
          "internalType": "address",
          "name": "addr",
          "type": "address"
        }
      ],
      "name": "hasApplied",
      "outputs": [
        {
          "internalType": "bool",
          "name": "",
          "type": "bool"
        }
      ],
      "stateMutability": "view",
      "type": "function"
    },
    {
      "inputs": [
        {
          "internalType": "bytes32",
          "name": "role",
          "type": "bytes32"
        },
        {
          "internalType": "address",
          "name": "account",
          "type": "address"
        }
      ],
      "name": "hasRole",
      "outputs": [
        {
          "internalType": "bool",
          "name": "",
          "type": "bool"
        }
      ],
      "stateMutability": "view",
      "type": "function"
    },
    {
      "inputs": [
        {
          "internalType": "address",
          "name": "addr",
          "type": "address"
        }
      ],
      "name": "isAdmin",
      "outputs": [
        {
          "internalType": "bool",
          "name": "",
          "type": "bool"
        }
      ],
      "stateMutability": "view",
      "type": "function"
    },
    {
      "inputs": [
        {
          "internalType": "address",
          "name": "addr",
          "type": "address"
        }
      ],
      "name": "isAdminManager",
      "outputs": [
        {
          "internalType": "bool",
          "name": "",
          "type": "bool"
        }
      ],
      "stateMutability": "view",
      "type": "function"
    },
    {
      "inputs": [
        {
          "internalType": "uint256",
          "name": "id",
          "type": "uint256"
        }
      ],
      "name": "removeApplication",
      "outputs": [],
      "stateMutability": "nonpayable",
      "type": "function"
    },
    {
      "inputs": [
        {
          "internalType": "uint256",
          "name": "id",
          "type": "uint256"
        }
      ],
      "name": "renounceDevelopper",
      "outputs": [],
      "stateMutability": "nonpayable",
      "type": "function"
    },
    {
      "inputs": [
        {
          "internalType": "bytes32",
          "name": "role",
          "type": "bytes32"
        },
        {
          "internalType": "address",
          "name": "account",
          "type": "address"
        }
      ],
      "name": "renounceRole",
      "outputs": [],
      "stateMutability": "nonpayable",
      "type": "function"
    },
    {
      "inputs": [
        {
          "internalType": "address",
          "name": "_address",
          "type": "address"
        }
      ],
      "name": "revokeAdminManagerRole",
      "outputs": [],
      "stateMutability": "nonpayable",
      "type": "function"
    },
    {
      "inputs": [
        {
          "internalType": "address",
          "name": "_address",
          "type": "address"
        }
      ],
      "name": "revokeAdminRole",
      "outputs": [],
      "stateMutability": "nonpayable",
      "type": "function"
    },
    {
      "inputs": [
        {
          "internalType": "bytes32",
          "name": "role",
          "type": "bytes32"
        },
        {
          "internalType": "address",
          "name": "account",
          "type": "address"
        }
      ],
      "name": "revokeRole",
      "outputs": [],
      "stateMutability": "nonpayable",
      "type": "function"
    },
    {
      "inputs": [
        {
          "internalType": "uint256",
          "name": "_bail_percentage",
          "type": "uint256"
        },
        {
          "internalType": "uint256",
          "name": "_reputation_threshold_for_arbitration",
          "type": "uint256"
        },
        {
          "internalType": "uint256",
          "name": "_litigation_period",
          "type": "uint256"
        }
      ],
      "name": "setParameters",
      "outputs": [],
      "stateMutability": "nonpayable",
      "type": "function"
    },
    {
      "inputs": [
        {
          "internalType": "uint256",
          "name": "id",
          "type": "uint256"
        },
        {
          "internalType": "uint256",
          "name": "_application_deadline",
          "type": "uint256"
        },
        {
          "internalType": "uint256",
          "name": "_vote_deadline",
          "type": "uint256"
        }
      ],
      "name": "setProjectParameters",
      "outputs": [],
      "stateMutability": "nonpayable",
      "type": "function"
    },
    {
      "inputs": [
        {
          "internalType": "uint256",
          "name": "id",
          "type": "uint256"
        }
      ],
      "name": "startLitigationPhase_dev",
      "outputs": [],
      "stateMutability": "nonpayable",
      "type": "function"
    },
    {
      "inputs": [
        {
          "internalType": "uint256",
          "name": "id",
          "type": "uint256"
        }
      ],
      "name": "startLitigationPhase_funder",
      "outputs": [],
      "stateMutability": "nonpayable",
      "type": "function"
    },
    {
      "inputs": [
        {
          "internalType": "uint256",
          "name": "id",
          "type": "uint256"
        }
      ],
      "name": "startVotePhase",
      "outputs": [],
      "stateMutability": "nonpayable",
      "type": "function"
    },
    {
      "inputs": [
        {
          "internalType": "bytes4",
          "name": "interfaceId",
          "type": "bytes4"
        }
      ],
      "name": "supportsInterface",
      "outputs": [
        {
          "internalType": "bool",
          "name": "",
          "type": "bool"
        }
      ],
      "stateMutability": "view",
      "type": "function"
    },
    {
      "inputs": [
        {
          "internalType": "address",
          "name": "addr",
          "type": "address"
        }
      ],
      "name": "unbanArbitrator",
      "outputs": [],
      "stateMutability": "nonpayable",
      "type": "function"
    },
    {
      "inputs": [
        {
          "internalType": "string",
          "name": "_cv_uri",
          "type": "string"
        }
      ],
      "name": "updateCV",
      "outputs": [],
      "stateMutability": "nonpayable",
      "type": "function"
    },
    {
      "inputs": [
        {
          "internalType": "uint256",
          "name": "id",
          "type": "uint256"
        },
        {
          "internalType": "address",
          "name": "developper",
          "type": "address"
        }
      ],
      "name": "voteForDevelopper",
      "outputs": [],
      "stateMutability": "nonpayable",
      "type": "function"
    },
    {
      "inputs": [
        {
          "internalType": "uint256",
          "name": "id",
          "type": "uint256"
        }
      ],
      "name": "withdrawFunds",
      "outputs": [],
      "stateMutability": "nonpayable",
      "type": "function"
    }
  ],
  "bytecode": "0x60806040523480156200001157600080fd5b506200003e7fa49807205ce4d355092ef5a8a18f56e8913cf4a201fbe287825b095693c21775336200008e565b6200006a7f10727a1f9dcafcdc62117a955136b7425444d71bf08083d4aa5892e20e27814d336200008e565b62000083600a670de0b6b3a7640000620151806200009e565b6000600655620001cf565b6200009a82826200012f565b5050565b3360009081527f7d7ffb7a348e1c6a02869081a26547b49160dd3df72d1d75a570eb9b698292ec602052604090205460ff16620001215760405162461bcd60e51b815260206004820152601660248201527f43616c6c6572206973206e6f7420616e2061646d696e00000000000000000000604482015260640160405180910390fd5b600192909255600255600355565b6000828152602081815260408083206001600160a01b038516845290915290205460ff166200009a576000828152602081815260408083206001600160a01b03851684529091529020805460ff191660011790556200018b3390565b6001600160a01b0316816001600160a01b0316837f2f8788117e7eff1d82e926ec794901d17c78024a50270940304540a733656f0d60405160405180910390a45050565b61355980620001df6000396000f3fe6080604052600436106102515760003560e01c80637a77bffd11610139578063b27a66e8116100b6578063d547741f1161007a578063d547741f1461079b578063e8776ffe146107bb578063ef6300c7146107db578063f0f3f2c814610808578063f74ce1d214610835578063fcd961a21461085557600080fd5b8063b27a66e8146106d2578063bc3f931f146106f2578063c634b78e14610739578063c668a47d14610759578063ca14cfb81461077957600080fd5b80639693f940116100fd5780639693f940146106135780639a19c7b014610633578063a217fddf14610653578063a39bf54414610668578063a7020b1a146106b257600080fd5b80637a77bffd1461052d57806388b62c201461054d57806389e19225146105b157806391d14854146105d157806395f381cb146105f157600080fd5b806336568abe116101d257806350f3aed31161019657806350f3aed314610478578063677c0e66146104985780636c3ec2e0146104b85780636c563abe146104d857806375b238fc146104eb578063781419cf1461050d57600080fd5b806336568abe146103cb5780633bcff3b0146103eb5780634129b2c914610400578063488deb14146104385780634f6dfc861461045857600080fd5b806324d7806c1161021957806324d7806c1461032b57806327244a931461034b5780632f2ff15d1461036b57806334c5d2ce1461038b578063350a333f146103ab57600080fd5b806301ffc9a714610256578063155dd5ee1461028b578063202c5272146102ad57806321622a9b146102cd578063248a9ca3146102ed575b600080fd5b34801561026257600080fd5b50610276610271366004612c2a565b610875565b60405190151581526020015b60405180910390f35b34801561029757600080fd5b506102ab6102a6366004612c54565b6108ac565b005b3480156102b957600080fd5b506102ab6102c8366004612d10565b610a39565b3480156102d957600080fd5b506102ab6102e8366004612c54565b610a59565b3480156102f957600080fd5b5061031d610308366004612c54565b60009081526020819052604090206001015490565b604051908152602001610282565b34801561033757600080fd5b50610276610346366004612d69565b610b7e565b34801561035757600080fd5b506102ab610366366004612d84565b610b98565b34801561037757600080fd5b506102ab610386366004612dcb565b610cee565b34801561039757600080fd5b506102ab6103a6366004612df7565b610d18565b3480156103b757600080fd5b506102ab6103c6366004612dcb565b610d5a565b3480156103d757600080fd5b506102ab6103e6366004612dcb565b611017565b3480156103f757600080fd5b5060065461031d565b34801561040c57600080fd5b5061042061041b366004612c54565b611091565b6040516001600160a01b039091168152602001610282565b34801561044457600080fd5b506102ab610453366004612d69565b6111b0565b34801561046457600080fd5b506102ab610473366004612e23565b6111ff565b34801561048457600080fd5b506102ab610493366004612c54565b6112b3565b3480156104a457600080fd5b506102ab6104b3366004612c54565b611358565b3480156104c457600080fd5b506102ab6104d3366004612d69565b611543565b6102ab6104e6366004612c54565b61158f565b3480156104f757600080fd5b5061031d6000805160206134e483398151915281565b34801561051957600080fd5b506102ab610528366004612c54565b6117bc565b34801561053957600080fd5b506102ab610548366004612d69565b611969565b34801561055957600080fd5b5061059c610568366004612dcb565b60009182526005602090815260408084206001600160a01b03939093168452600e9092019052902080546001909101549091565b60408051928352602083019190915201610282565b3480156105bd57600080fd5b506102ab6105cc366004612c54565b6119b5565b3480156105dd57600080fd5b506102766105ec366004612dcb565b611b1c565b3480156105fd57600080fd5b5061031d6000805160206134c483398151915281565b34801561061f57600080fd5b506102ab61062e366004612c54565b611b45565b34801561063f57600080fd5b506102ab61064e366004612d69565b611c93565b34801561065f57600080fd5b5061031d600081565b34801561067457600080fd5b50610276610683366004612dcb565b60008281526005602090815260408083206001600160a01b0385168452600f0190915290205460ff1692915050565b3480156106be57600080fd5b506102ab6106cd366004612ea0565b611cdf565b3480156106de57600080fd5b506102ab6106ed366004612df7565b611ffd565b3480156106fe57600080fd5b5061042061070d366004612dcb565b60009182526005602090815260408084206001600160a01b039384168552601001909152909120541690565b34801561074557600080fd5b506102ab610754366004612d69565b61204e565b34801561076557600080fd5b506102ab610774366004612c54565b61209a565b34801561078557600080fd5b5061031d60008051602061350483398151915281565b3480156107a757600080fd5b506102ab6107b6366004612dcb565b612381565b3480156107c757600080fd5b506102ab6107d6366004612d69565b6123a6565b3480156107e757600080fd5b506107fb6107f6366004612d69565b6123f2565b6040516102829190612f12565b34801561081457600080fd5b50610828610823366004612c54565b6124cc565b6040516102829190612fb3565b34801561084157600080fd5b506102ab610850366004612c54565b6127d1565b34801561086157600080fd5b50610276610870366004612d69565b61286b565b60006001600160e01b03198216637965db0b60e01b14806108a657506301ffc9a760e01b6001600160e01b03198316145b92915050565b80600654116108d65760405162461bcd60e51b81526004016108cd906130fc565b60405180910390fd5b60008181526005602081905260408220810154610100900460ff169081111561090157610901612f37565b1461091e5760405162461bcd60e51b81526004016108cd9061312c565b6000818152600560209081526040808320338452600e019091529020546109875760405162461bcd60e51b815260206004820152601d60248201527f596f752068617665206e6f2066756e647320746f20776974686472617700000060448201526064016108cd565b6000818152600560208181526040808420338552600e81018352908420805460018201805492879055869055868652939092526006018054929391928492906109d190849061316f565b9091555050600083815260056020526040812060070180548392906109f790849061316f565b909155503390506108fc610a0b8385613182565b6040518115909202916000818181858888f19350505050158015610a33573d6000803e3d6000fd5b50505050565b336000908152600760205260409020600101610a55828261321d565b5050565b8060065411610a7a5760405162461bcd60e51b81526004016108cd906130fc565b60026000828152600560208190526040909120810154610100900460ff1690811115610aa857610aa8612f37565b14610ac55760405162461bcd60e51b81526004016108cd906132dd565b6000818152600560209081526040808320338452600e01909152902054610b545760405162461bcd60e51b815260206004820152603760248201527f596f752068617665206e6f742066756e646564207468652070726f6a6563742c60448201527f2063616e2774207374617274206c697469676174696f6e00000000000000000060648201526084016108cd565b60008181526005602081905260409091200180546004919061ff001916610100835b021790555050565b60006108a66000805160206134e483398151915283611b1c565b8160065411610bb95760405162461bcd60e51b81526004016108cd906130fc565b60008281526005602081905260408220810154610100900460ff1690811115610be457610be4612f37565b14610c015760405162461bcd60e51b81526004016108cd9061312c565b6000828152600560209081526040808320338452600f0190915290205460ff1615610c7f5760405162461bcd60e51b815260206004820152602860248201527f596f75206861766520616c7265616479206170706c69656420746f2074686973604482015267081c1c9bda9958dd60c21b60648201526084016108cd565b336000908152600760205260409020600101610c9b828261321d565b5050600090815260056020818152604080842033808652600f82018452918520805460ff19166001908117909155938352600d0180549384018155845292200180546001600160a01b0319169091179055565b600082815260208190526040902060010154610d0981612885565b610d13838361288f565b505050565b610d306000805160206134e483398151915233611b1c565b610d4c5760405162461bcd60e51b81526004016108cd90613314565b600192909255600255600355565b8160065411610d7b5760405162461bcd60e51b81526004016108cd906130fc565b6000828152600560205260409020600901544210610dd05760405162461bcd60e51b81526020600482015260126024820152712b37ba3290383430b9b29034b99037bb32b960711b60448201526064016108cd565b60016000838152600560208190526040909120810154610100900460ff1690811115610dfe57610dfe612f37565b14610e4b5760405162461bcd60e51b815260206004820152601c60248201527f50726f6a656374206973206e6f7420696e20766f74652070686173650000000060448201526064016108cd565b60008281526005602090815260408083206001600160a01b0385168452600f0190915290205460ff161515600114610ed85760405162461bcd60e51b815260206004820152602a60248201527f446576656c6f7070657220686173206e6f74206170706c69656420746f2074686044820152691a5cc81c1c9bda9958dd60b21b60648201526084016108cd565b6000828152600560209081526040808320338452600e01909152902054610f415760405162461bcd60e51b815260206004820152601960248201527f596f752068617665206e6f2066756e647320746f20766f74650000000000000060448201526064016108cd565b60008281526005602090815260408083203384526010019091529020546001600160a01b031615610fad5760405162461bcd60e51b8152602060048201526016602482015275165bdd481a185d9948185b1c9958591e481d9bdd195960521b60448201526064016108cd565b600082815260056020908152604080832033845260108101835281842080546001600160a01b0319166001600160a01b038716908117909155600e82018452828520549085526011909101909252822080549192909161100e908490613182565b90915550505050565b6001600160a01b03811633146110875760405162461bcd60e51b815260206004820152602f60248201527f416363657373436f6e74726f6c3a2063616e206f6e6c792072656e6f756e636560448201526e103937b632b9903337b91039b2b63360891b60648201526084016108cd565b610a558282612913565b60008080805b6000858152600560205260409020600d01548110156111a8576000858152600560205260408120600d8101805486936011909301929190859081106110de576110de613344565b60009182526020808320909101546001600160a01b031683528201929092526040019020541115611196576000858152600560205260408120600d81018054601190920192918490811061113457611134613344565b60009182526020808320909101546001600160a01b03168352828101939093526040918201812054888252600590935220600d018054919450908290811061117e5761117e613344565b6000918252602090912001546001600160a01b031691505b806111a08161335a565b915050611097565b509392505050565b6111c860008051602061350483398151915233611b1c565b6111e45760405162461bcd60e51b81526004016108cd90613373565b6111fc60008051602061350483398151915282612381565b50565b6006805460008181526005602052604081209192839161121e8361335a565b909155505081815560018101611234868261321d565b5060028101611243858261321d565b506003810180546001600160a01b0319908116331790915542600483015560058201805494151561ff00191661ffff199095169490941790935560006006820181905560078201819055600882018190556009820155600a8101805484169055600b018054909216909155505050565b80600654116112d45760405162461bcd60e51b81526004016108cd906130fc565b60026000828152600560208190526040909120810154610100900460ff169081111561130257611302612f37565b1461131f5760405162461bcd60e51b81526004016108cd906132dd565b6000818152600560205260409020600a01546001600160a01b03163314610b545760405162461bcd60e51b81526004016108cd906133aa565b80600654116113795760405162461bcd60e51b81526004016108cd906130fc565b60026000828152600560208190526040909120810154610100900460ff16908111156113a7576113a7612f37565b146113c45760405162461bcd60e51b81526004016108cd906132dd565b6000818152600560205260409020600a01546001600160a01b031633146113fd5760405162461bcd60e51b81526004016108cd906133aa565b60008181526005602081905260408220600a810180546001600160a01b031916905501805461ff00191690555b6000828152600560205260409020600c01548110156114c2576000828152600560205260408120600c810180546010909201918391908590811061147057611470613344565b6000918252602080832091909101546001600160a01b039081168452908301939093526040909101902080546001600160a01b03191692909116919091179055806114ba8161335a565b91505061142a565b5060005b6000828152600560205260409020600d0154811015610a55576000828152600560205260408120600d810180546011909201918391908590811061150c5761150c613344565b60009182526020808320909101546001600160a01b031683528201929092526040019020558061153b8161335a565b9150506114c6565b61155b6000805160206134e483398151915233611b1c565b6115775760405162461bcd60e51b81526004016108cd90613314565b6111fc6000805160206134c483398151915282612381565b80600654116115b05760405162461bcd60e51b81526004016108cd906130fc565b6000818152600560208190526040909120015460ff166116125760405162461bcd60e51b815260206004820152601f60248201527f50726f6a656374206973206e6f74206f70656e20746f2066756e64696e67730060448201526064016108cd565b60008181526005602081905260408220810154610100900460ff169081111561163d5761163d612f37565b1461165a5760405162461bcd60e51b81526004016108cd9061312c565b6000818152600560209081526040808320338452600e0190915281205490036116af5760008181526005602090815260408220600c01805460018101825590835291200180546001600160a01b031916331790555b6000818152600560209081526040808320338452601001909152812080546001600160a01b03191690556001546064906116e990346133eb565b6116f39190613402565b90506000611701823461316f565b6000848152600560209081526040808320338452600e01909152812080549293508392909190611732908490613182565b90915550506000838152600560209081526040808320338452600e0190915281206001018054849290611766908490613182565b90915550506000838152600560205260408120600601805483929061178c908490613182565b9091555050600083815260056020526040812060070180548492906117b2908490613182565b9091555050505050565b80600654116117dd5760405162461bcd60e51b81526004016108cd906130fc565b60008181526005602081905260408220810154610100900460ff169081111561180857611808612f37565b146118665760405162461bcd60e51b815260206004820152602860248201527f50726f6a656374206973206e6f74206f70656e20746f2065787465726e616b2060448201526766756e64696e677360c01b60648201526084016108cd565b60008181526005602052604090206008015442106118c65760405162461bcd60e51b815260206004820152601e60248201527f4170706c69636174696f6e20646561646c696e6520697320706173736564000060448201526064016108cd565b6000818152600560209081526040808320338452600f0190915290205460ff1615156001146119435760405162461bcd60e51b8152602060048201526024808201527f596f752068617665206e6f74206170706c69656420746f20746869732070726f6044820152631a9958dd60e21b60648201526084016108cd565b6000908152600560209081526040808320338452600f019091529020805460ff19169055565b6119816000805160206134e483398151915233611b1c565b61199d5760405162461bcd60e51b81526004016108cd90613314565b6111fc6000805160206134c483398151915282610cee565b80600654116119d65760405162461bcd60e51b81526004016108cd906130fc565b6000818152600560205260409020600801544211611a415760405162461bcd60e51b815260206004820152602260248201527f4170706c69636174696f6e20646561646c696e65206973206e6f742070617373604482015261195960f21b60648201526084016108cd565b60008181526005602081905260408220810154610100900460ff1690811115611a6c57611a6c612f37565b14611a895760405162461bcd60e51b81526004016108cd9061312c565b6000818152600560209081526040808320338452600f0190915290205460ff1615611af65760405162461bcd60e51b815260206004820181905260248201527f596f752068617665206170706c69656420746f20746869732070726f6a65637460448201526064016108cd565b60008181526005602081905260409091200180546001919061ff00191661010083610b76565b6000918252602082815260408084206001600160a01b0393909316845291905290205460ff1690565b8060065411611b665760405162461bcd60e51b81526004016108cd906130fc565b60016000828152600560208190526040909120810154610100900460ff1690811115611b9457611b94612f37565b14611be15760405162461bcd60e51b815260206004820152601c60248201527f50726f6a656374206973206e6f7420696e20766f74652070686173650000000060448201526064016108cd565b6000818152600560205260409020600901544211611c3a5760405162461bcd60e51b81526020600482015260166024820152752b37ba3290383430b9b29034b9903737ba1037bb32b960511b60448201526064016108cd565b600081815260056020819052604090912001805461ff001916610200179055611c6281611091565b600091825260056020526040909120600a0180546001600160a01b0319166001600160a01b03909216919091179055565b611cab60008051602061350483398151915233611b1c565b611cc75760405162461bcd60e51b81526004016108cd90613373565b6111fc6000805160206134e483398151915282612381565b8160065411611d005760405162461bcd60e51b81526004016108cd906130fc565b60046000838152600560208190526040909120810154610100900460ff1690811115611d2e57611d2e612f37565b14611d7b5760405162461bcd60e51b815260206004820152601c60248201527f50726f6a656374206973206e6f7420696e206c697469676174696f6e0000000060448201526064016108cd565b6000828152600560205260409020600b01546001600160a01b03163314611de45760405162461bcd60e51b815260206004820152601a60248201527f596f7520617265206e6f74207468652061726269747261746f7200000000000060448201526064016108cd565b6064811115611e405760405162461bcd60e51b815260206004820152602260248201527f4465636973696f6e206d757374206265206265747765656e203020616e642031604482015261030360f41b60648201526084016108cd565b600082815260056020526040812060070154611e5e90600290613402565b604051909150339082156108fc029083906000818181858888f19350505050158015611e8e573d6000803e3d6000fd5b5060006064611e9d84846133eb565b611ea79190613402565b600085815260056020526040808220600a015490519293506001600160a01b03169183156108fc0291849190818181858888f19350505050158015611ef0573d6000803e3d6000fd5b5060005b6000858152600560205260409020600c0154811015611ff6576000858152600560205260409020600c01805482908110611f3057611f30613344565b6000918252602090912001546001600160a01b03166108fc6064611f54878261316f565b6000898152600560205260408120600c81018054600e909201929188908110611f7f57611f7f613344565b60009182526020808320909101546001600160a01b03168352820192909252604001902060010154611fb191906133eb565b611fbb9190613402565b6040518115909202916000818181858888f19350505050158015611fe3573d6000803e3d6000fd5b5080611fee8161335a565b915050611ef4565b5050505050565b6120156000805160206134e483398151915233611b1c565b6120315760405162461bcd60e51b81526004016108cd90613314565b600092835260056020526040909220600881019190915560090155565b6120666000805160206134e483398151915233611b1c565b6120825760405162461bcd60e51b81526004016108cd90613373565b6111fc6000805160206134e483398151915282610cee565b80600654116120bb5760405162461bcd60e51b81526004016108cd906130fc565b60046000828152600560208190526040909120810154610100900460ff16908111156120e9576120e9612f37565b146121365760405162461bcd60e51b815260206004820152601c60248201527f50726f6a656374206973206e6f7420696e206c697469676174696f6e0000000060448201526064016108cd565b6000818152600560205260409020600a01546001600160a01b031633148061217957506000818152600560209081526040808320338452600e0190915290205415155b6121fc5760405162461bcd60e51b815260206004820152604860248201527f596f752063616e27742068616e646c6520746865206c697469676174696f6e2060448201527f706861736520696620796f752061726520696e766f6c76656420696e20746865606482015267081c1c9bda9958dd60c21b608482015260a4016108cd565b6000818152600560205260409020600b01546001600160a01b0316156122645760405162461bcd60e51b815260206004820152601960248201527f41726269747261746f7220697320616c7265616479207365740000000000000060448201526064016108cd565b6002543360009081526007602052604090205410156122eb5760405162461bcd60e51b815260206004820152603760248201527f596f7520646f6e2774206861766520746865207265717569726564207265707560448201527f746174696f6e20746f2062652061726269747261746f7200000000000000000060648201526084016108cd565b6123036000805160206134c483398151915233611b1c565b1561235e5760405162461bcd60e51b815260206004820152602560248201527f596f75206172652062616e6e65642066726f6d20626565696e672061726269746044820152643930ba37b960d91b60648201526084016108cd565b6000908152600560205260409020600b0180546001600160a01b03191633179055565b60008281526020819052604090206001015461239c81612885565b610d138383612913565b6123be60008051602061350483398151915233611b1c565b6123da5760405162461bcd60e51b81526004016108cd90613373565b6111fc60008051602061350483398151915282610cee565b6040805180820190915260008152606060208201526001600160a01b038216600090815260076020908152604091829020825180840190935280548352600181018054919284019161244390613195565b80601f016020809104026020016040519081016040528092919081815260200182805461246f90613195565b80156124bc5780601f10612491576101008083540402835291602001916124bc565b820191906000526020600020905b81548152906001019060200180831161249f57829003601f168201915b5050505050815250509050919050565b6124d4612b86565b604080516101e081018252600084815260056020818152938220805484529186905283526001018054919283019161250b90613195565b80601f016020809104026020016040519081016040528092919081815260200182805461253790613195565b80156125845780601f1061255957610100808354040283529160200191612584565b820191906000526020600020905b81548152906001019060200180831161256757829003601f168201915b505050505081526020016005600085815260200190815260200160002060020180546125af90613195565b80601f01602080910402602001604051908101604052809291908181526020018280546125db90613195565b80156126285780601f106125fd57610100808354040283529160200191612628565b820191906000526020600020905b81548152906001019060200180831161260b57829003601f168201915b5050509183525050600084815260056020818152604080842060038101546001600160a01b03168387015260048101549186019190915282015460ff80821615156060870152938890529082905260809093019261010090049091169081111561269457612694612f37565b815260008481526005602081815260408084206006810154838701526007810154828701526008810154606087015260098101546080870152600a8101546001600160a01b0390811660a0880152600b8201541660c087015293889052918152600c909201805482518185028101850190935280835260e090940193919290919083018282801561274e57602002820191906000526020600020905b81546001600160a01b03168152600190910190602001808311612730575b5050505050815260200160056000858152602001908152602001600020600d018054806020026020016040519081016040528092919081815260200182805480156127c257602002820191906000526020600020905b81546001600160a01b031681526001909101906020018083116127a4575b50505050508152509050919050565b80600654116127f25760405162461bcd60e51b81526004016108cd906130fc565b6000818152600560205260409020600301546001600160a01b03163314611a415760405162461bcd60e51b815260206004820152602760248201527f596f7520617265206e6f74207468652063726561746f72206f662074686973206044820152661c1c9bda9958dd60ca1b60648201526084016108cd565b60006108a660008051602061350483398151915283611b1c565b6111fc8133612978565b6128998282611b1c565b610a55576000828152602081815260408083206001600160a01b03851684529091529020805460ff191660011790556128cf3390565b6001600160a01b0316816001600160a01b0316837f2f8788117e7eff1d82e926ec794901d17c78024a50270940304540a733656f0d60405160405180910390a45050565b61291d8282611b1c565b15610a55576000828152602081815260408083206001600160a01b0385168085529252808320805460ff1916905551339285917ff6391f5c32d9c69d2a47ea670b442974b53935d1edc7fd64eb21e047a839171b9190a45050565b6129828282611b1c565b610a555761298f816129d1565b61299a8360206129e3565b6040516020016129ab929190613424565b60408051601f198184030181529082905262461bcd60e51b82526108cd91600401613499565b60606108a66001600160a01b03831660145b606060006129f28360026133eb565b6129fd906002613182565b67ffffffffffffffff811115612a1557612a15612c6d565b6040519080825280601f01601f191660200182016040528015612a3f576020820181803683370190505b509050600360fc1b81600081518110612a5a57612a5a613344565b60200101906001600160f81b031916908160001a905350600f60fb1b81600181518110612a8957612a89613344565b60200101906001600160f81b031916908160001a9053506000612aad8460026133eb565b612ab8906001613182565b90505b6001811115612b30576f181899199a1a9b1b9c1cb0b131b232b360811b85600f1660108110612aec57612aec613344565b1a60f81b828281518110612b0257612b02613344565b60200101906001600160f81b031916908160001a90535060049490941c93612b29816134ac565b9050612abb565b508315612b7f5760405162461bcd60e51b815260206004820181905260248201527f537472696e67733a20686578206c656e67746820696e73756666696369656e7460448201526064016108cd565b9392505050565b604051806101e0016040528060008152602001606081526020016060815260200160006001600160a01b031681526020016000815260200160001515815260200160006005811115612bda57612bda612f37565b81526020016000815260200160008152602001600081526020016000815260200160006001600160a01b0316815260200160006001600160a01b0316815260200160608152602001606081525090565b600060208284031215612c3c57600080fd5b81356001600160e01b031981168114612b7f57600080fd5b600060208284031215612c6657600080fd5b5035919050565b634e487b7160e01b600052604160045260246000fd5b600082601f830112612c9457600080fd5b813567ffffffffffffffff80821115612caf57612caf612c6d565b604051601f8301601f19908116603f01168101908282118183101715612cd757612cd7612c6d565b81604052838152866020858801011115612cf057600080fd5b836020870160208301376000602085830101528094505050505092915050565b600060208284031215612d2257600080fd5b813567ffffffffffffffff811115612d3957600080fd5b612d4584828501612c83565b949350505050565b80356001600160a01b0381168114612d6457600080fd5b919050565b600060208284031215612d7b57600080fd5b612b7f82612d4d565b60008060408385031215612d9757600080fd5b82359150602083013567ffffffffffffffff811115612db557600080fd5b612dc185828601612c83565b9150509250929050565b60008060408385031215612dde57600080fd5b82359150612dee60208401612d4d565b90509250929050565b600080600060608486031215612e0c57600080fd5b505081359360208301359350604090920135919050565b600080600060608486031215612e3857600080fd5b833567ffffffffffffffff80821115612e5057600080fd5b612e5c87838801612c83565b94506020860135915080821115612e7257600080fd5b50612e7f86828701612c83565b92505060408401358015158114612e9557600080fd5b809150509250925092565b60008060408385031215612eb357600080fd5b50508035926020909101359150565b60005b83811015612edd578181015183820152602001612ec5565b50506000910152565b60008151808452612efe816020860160208601612ec2565b601f01601f19169290920160200192915050565b602081528151602082015260006020830151604080840152612d456060840182612ee6565b634e487b7160e01b600052602160045260246000fd5b60068110612f6b57634e487b7160e01b600052602160045260246000fd5b9052565b600081518084526020808501945080840160005b83811015612fa85781516001600160a01b031687529582019590820190600101612f83565b509495945050505050565b6020815281516020820152600060208301516101e0806040850152612fdc610200850183612ee6565b91506040850151601f1980868503016060870152612ffa8483612ee6565b93506060870151915061301860808701836001600160a01b03169052565b608087015160a087015260a0870151915061303760c087018315159052565b60c0870151915061304b60e0870183612f4d565b60e087015161010087810191909152870151610120808801919091528701516101408088019190915287015161016080880191909152870151915061018061309d818801846001600160a01b03169052565b87015191506101a06130b9878201846001600160a01b03169052565b808801519250506101c08187860301818801526130d68584612f6f565b9088015187820390920184880152935090506130f28382612f6f565b9695505050505050565b602080825260169082015275141c9bda9958dd08191bd95cc81b9bdd08195e1a5cdd60521b604082015260600190565b602080825260139082015272283937b532b1ba1034b9903737ba1037b832b760691b604082015260600190565b634e487b7160e01b600052601160045260246000fd5b818103818111156108a6576108a6613159565b808201808211156108a6576108a6613159565b600181811c908216806131a957607f821691505b6020821081036131c957634e487b7160e01b600052602260045260246000fd5b50919050565b601f821115610d1357600081815260208120601f850160051c810160208610156131f65750805b601f850160051c820191505b8181101561321557828155600101613202565b505050505050565b815167ffffffffffffffff81111561323757613237612c6d565b61324b816132458454613195565b846131cf565b602080601f83116001811461328057600084156132685750858301515b600019600386901b1c1916600185901b178555613215565b600085815260208120601f198616915b828110156132af57888601518255948401946001909101908401613290565b50858210156132cd5787850151600019600388901b60f8161c191681555b5050505050600190811b01905550565b6020808252601a908201527f50726f6a656374206973206e6f7420696e2070726f6772657373000000000000604082015260600190565b60208082526016908201527521b0b63632b91034b9903737ba1030b71030b236b4b760511b604082015260600190565b634e487b7160e01b600052603260045260246000fd5b60006001820161336c5761336c613159565b5060010190565b6020808252601e908201527f43616c6c6572206973206e6f7420616e2061646d696e206d616e616765720000604082015260600190565b60208082526021908201527f596f7520617265206e6f74207468652063686f73656e20646576656c6f7070656040820152603960f91b606082015260800190565b80820281158282048414176108a6576108a6613159565b60008261341f57634e487b7160e01b600052601260045260246000fd5b500490565b7f416363657373436f6e74726f6c3a206163636f756e742000000000000000000081526000835161345c816017850160208801612ec2565b7001034b99036b4b9b9b4b733903937b6329607d1b601791840191820152835161348d816028840160208801612ec2565b01602801949350505050565b602081526000612b7f6020830184612ee6565b6000816134bb576134bb613159565b50600019019056fe1840088ee2a313f51a98ef87ae3c589ebc67f9f164e04c0f891f8aabc5b9abf6a49807205ce4d355092ef5a8a18f56e8913cf4a201fbe287825b095693c2177510727a1f9dcafcdc62117a955136b7425444d71bf08083d4aa5892e20e27814da26469706673582212203183a8fe4b34d7d1c311055edb79e184ab7a0d05b57f7b04cec2477f467a8f5264736f6c63430008130033",
  "linkReferences": {},
  "deployedLinkReferences": {}
}